{
  "_format": "hh-sol-artifact-1",
  "contractName": "Sandwich",
  "sourceName": "contracts/Sandwich.sol",
  "abi": [
    {
      "inputs": [
        {
          "internalType": "address",
          "name": "_WETH",
          "type": "address"
        }
      ],
      "stateMutability": "nonpayable",
      "type": "constructor"
    },
    {
      "inputs": [],
      "name": "WETH",
      "outputs": [
        {
          "internalType": "contract IWETH",
          "name": "",
          "type": "address"
        }
      ],
      "stateMutability": "view",
      "type": "function"
    },
    {
      "inputs": [
        {
          "internalType": "address",
          "name": "user",
          "type": "address"
        }
      ],
      "name": "addAuthority",
      "outputs": [],
      "stateMutability": "nonpayable",
      "type": "function"
    },
    {
      "inputs": [],
      "name": "factory",
      "outputs": [
        {
          "internalType": "address",
          "name": "",
          "type": "address"
        }
      ],
      "stateMutability": "view",
      "type": "function"
    },
    {
      "inputs": [
        {
          "internalType": "address",
          "name": "",
          "type": "address"
        }
      ],
      "name": "isAuthorized",
      "outputs": [
        {
          "internalType": "bool",
          "name": "",
          "type": "bool"
        }
      ],
      "stateMutability": "view",
      "type": "function"
    },
    {
      "inputs": [
        {
          "internalType": "uint256",
          "name": "amountIn",
          "type": "uint256"
        },
        {
          "internalType": "uint256",
          "name": "amountOutMin",
          "type": "uint256"
        },
        {
          "internalType": "address[]",
          "name": "path",
          "type": "address[]"
        }
      ],
      "name": "swap",
      "outputs": [],
      "stateMutability": "nonpayable",
      "type": "function"
    },
    {
      "inputs": [
        {
          "internalType": "address",
          "name": "token",
          "type": "address"
        }
      ],
      "name": "tokenBalance",
      "outputs": [
        {
          "internalType": "uint256",
          "name": "balance",
          "type": "uint256"
        }
      ],
      "stateMutability": "view",
      "type": "function"
    },
    {
      "inputs": [
        {
          "internalType": "address",
          "name": "token",
          "type": "address"
        },
        {
          "internalType": "uint256",
          "name": "amount",
          "type": "uint256"
        }
      ],
      "name": "withdraw",
      "outputs": [],
      "stateMutability": "nonpayable",
      "type": "function"
    },
    {
      "stateMutability": "payable",
      "type": "receive"
    }
  ],
  "bytecode": "0x60806040523480156200001157600080fd5b50604051620023203803806200232083398181016040528101906200003791906200012e565b336000806101000a81548173ffffffffffffffffffffffffffffffffffffffff021916908373ffffffffffffffffffffffffffffffffffffffff1602179055506001600260003373ffffffffffffffffffffffffffffffffffffffff1673ffffffffffffffffffffffffffffffffffffffff16815260200190815260200160002060006101000a81548160ff02191690831515021790555080600160006101000a81548173ffffffffffffffffffffffffffffffffffffffff021916908373ffffffffffffffffffffffffffffffffffffffff16021790555050620001a8565b60008151905062000128816200018e565b92915050565b6000602082840312156200014157600080fd5b6000620001518482850162000117565b91505092915050565b600062000167826200016e565b9050919050565b600073ffffffffffffffffffffffffffffffffffffffff82169050919050565b62000199816200015a565b8114620001a557600080fd5b50565b61216880620001b86000396000f3fe6080604052600436106100745760003560e01c8063c45a01551161004e578063c45a015514610180578063eedc966a146101ab578063f3fef3a3146101e8578063fe9fbb8014610211576100fe565b806326defa731461010357806399585aac1461012c578063ad5c464814610155576100fe565b366100fe57600160009054906101000a900473ffffffffffffffffffffffffffffffffffffffff1673ffffffffffffffffffffffffffffffffffffffff1663d0e30db0346040518263ffffffff1660e01b81526004016000604051808303818588803b1580156100e357600080fd5b505af11580156100f7573d6000803e3d6000fd5b5050505050005b600080fd5b34801561010f57600080fd5b5061012a60048036038101906101259190611489565b61024e565b005b34801561013857600080fd5b50610153600480360381019061014e919061158f565b6103c4565b005b34801561016157600080fd5b5061016a6106c4565b6040516101779190611b3e565b60405180910390f35b34801561018c57600080fd5b506101956106ea565b6040516101a29190611adf565b60405180910390f35b3480156101b757600080fd5b506101d260048036038101906101cd9190611489565b610702565b6040516101df9190611cb9565b60405180910390f35b3480156101f457600080fd5b5061020f600480360381019061020a91906114b2565b610794565b005b34801561021d57600080fd5b5061023860048036038101906102339190611489565b610969565b6040516102459190611b23565b60405180910390f35b60008054906101000a900473ffffffffffffffffffffffffffffffffffffffff1673ffffffffffffffffffffffffffffffffffffffff163373ffffffffffffffffffffffffffffffffffffffff16146102dc576040517f08c379a00000000000000000000000000000000000000000000000000000000081526004016102d390611c19565b60405180910390fd5b600260008273ffffffffffffffffffffffffffffffffffffffff1673ffffffffffffffffffffffffffffffffffffffff16815260200190815260200160002060009054906101000a900460ff1615610369576040517f08c379a000000000000000000000000000000000000000000000000000000000815260040161036090611bf9565b60405180910390fd5b6001600260008373ffffffffffffffffffffffffffffffffffffffff1673ffffffffffffffffffffffffffffffffffffffff16815260200190815260200160002060006101000a81548160ff02191690831515021790555050565b600260003373ffffffffffffffffffffffffffffffffffffffff1673ffffffffffffffffffffffffffffffffffffffff16815260200190815260200160002060009054906101000a900460ff16610450576040517f08c379a000000000000000000000000000000000000000000000000000000000815260040161044790611c79565b60405180910390fd5b6000610471735c69bee701ef814a2b6a3edd4b1652cb9cc5aa6f8584610989565b90508281600183516104839190611e96565b815181106104ba577f4e487b7100000000000000000000000000000000000000000000000000000000600052603260045260246000fd5b60200260200101511015610503576040517f08c379a00000000000000000000000000000000000000000000000000000000081526004016104fa90611c39565b60405180910390fd5b8160008151811061053d577f4e487b7100000000000000000000000000000000000000000000000000000000600052603260045260246000fd5b602002602001015173ffffffffffffffffffffffffffffffffffffffff1663a9059cbb610601735c69bee701ef814a2b6a3edd4b1652cb9cc5aa6f856000815181106105b2577f4e487b7100000000000000000000000000000000000000000000000000000000600052603260045260246000fd5b6020026020010151866001815181106105f4577f4e487b7100000000000000000000000000000000000000000000000000000000600052603260045260246000fd5b6020026020010151610bf8565b8360008151811061063b577f4e487b7100000000000000000000000000000000000000000000000000000000600052603260045260246000fd5b60200260200101516040518363ffffffff1660e01b8152600401610660929190611afa565b602060405180830381600087803b15801561067a57600080fd5b505af115801561068e573d6000803e3d6000fd5b505050506040513d601f19601f820116820180604052508101906106b291906114ee565b506106be818330610c6a565b50505050565b600160009054906101000a900473ffffffffffffffffffffffffffffffffffffffff1681565b735c69bee701ef814a2b6a3edd4b1652cb9cc5aa6f81565b60008173ffffffffffffffffffffffffffffffffffffffff166370a08231306040518263ffffffff1660e01b815260040161073d9190611adf565b60206040518083038186803b15801561075557600080fd5b505afa158015610769573d6000803e3d6000fd5b505050506040513d601f19601f8201168201806040525081019061078d9190611566565b9050919050565b60008054906101000a900473ffffffffffffffffffffffffffffffffffffffff1673ffffffffffffffffffffffffffffffffffffffff163373ffffffffffffffffffffffffffffffffffffffff1614610822576040517f08c379a000000000000000000000000000000000000000000000000000000000815260040161081990611c19565b60405180910390fd5b808273ffffffffffffffffffffffffffffffffffffffff166370a08231306040518263ffffffff1660e01b815260040161085c9190611adf565b60206040518083038186803b15801561087457600080fd5b505afa158015610888573d6000803e3d6000fd5b505050506040513d601f19601f820116820180604052508101906108ac9190611566565b10156108b757600080fd5b8173ffffffffffffffffffffffffffffffffffffffff1663a9059cbb60008054906101000a900473ffffffffffffffffffffffffffffffffffffffff16836040518363ffffffff1660e01b8152600401610912929190611afa565b602060405180830381600087803b15801561092c57600080fd5b505af1158015610940573d6000803e3d6000fd5b505050506040513d601f19601f8201168201806040525081019061096491906114ee565b505050565b60026020528060005260406000206000915054906101000a900460ff1681565b60606002825110156109d0576040517f08c379a00000000000000000000000000000000000000000000000000000000081526004016109c790611bb9565b60405180910390fd5b815167ffffffffffffffff811115610a11577f4e487b7100000000000000000000000000000000000000000000000000000000600052604160045260246000fd5b604051908082528060200260200182016040528015610a3f5781602001602082028036833780820191505090505b5090508281600081518110610a7d577f4e487b7100000000000000000000000000000000000000000000000000000000600052603260045260246000fd5b60200260200101818152505060005b60018351610a9a9190611e96565b811015610bf057600080610b3b87868581518110610ae1577f4e487b7100000000000000000000000000000000000000000000000000000000600052603260045260246000fd5b602002602001015187600187610af79190611db5565b81518110610b2e577f4e487b7100000000000000000000000000000000000000000000000000000000600052603260045260246000fd5b6020026020010151610f69565b91509150610b8a848481518110610b7b577f4e487b7100000000000000000000000000000000000000000000000000000000600052603260045260246000fd5b6020026020010151838361107b565b84600185610b989190611db5565b81518110610bcf577f4e487b7100000000000000000000000000000000000000000000000000000000600052603260045260246000fd5b60200260200101818152505050508080610be890611f9d565b915050610a8c565b509392505050565b6000806000610c078585611181565b91509150858282604051602001610c1f929190611a71565b60405160208183030381529060405280519060200120604051602001610c46929190611a9d565b6040516020818303038152906040528051906020012060001c925050509392505050565b60005b60018351610c7b9190611e96565b811015610f6357600080848381518110610cbe577f4e487b7100000000000000000000000000000000000000000000000000000000600052603260045260246000fd5b602002602001015185600185610cd49190611db5565b81518110610d0b577f4e487b7100000000000000000000000000000000000000000000000000000000600052603260045260246000fd5b6020026020010151915091506000610d238383611181565b509050600087600186610d369190611db5565b81518110610d6d577f4e487b7100000000000000000000000000000000000000000000000000000000600052603260045260246000fd5b602002602001015190506000808373ffffffffffffffffffffffffffffffffffffffff168673ffffffffffffffffffffffffffffffffffffffff1614610db557826000610db9565b6000835b91509150600060028a51610dcd9190611e96565b8810610dd95788610e45565b610e44735c69bee701ef814a2b6a3edd4b1652cb9cc5aa6f878c60028c610e009190611db5565b81518110610e37577f4e487b7100000000000000000000000000000000000000000000000000000000600052603260045260246000fd5b6020026020010151610bf8565b5b9050610e66735c69bee701ef814a2b6a3edd4b1652cb9cc5aa6f8888610bf8565b73ffffffffffffffffffffffffffffffffffffffff1663022c0d9f848484600067ffffffffffffffff811115610ec5577f4e487b7100000000000000000000000000000000000000000000000000000000600052604160045260246000fd5b6040519080825280601f01601f191660200182016040528015610ef75781602001600182028036833780820191505090505b506040518563ffffffff1660e01b8152600401610f179493929190611cd4565b600060405180830381600087803b158015610f3157600080fd5b505af1158015610f45573d6000803e3d6000fd5b50505050505050505050508080610f5b90611f9d565b915050610c6d565b50505050565b6000806000610f788585611181565b509050600080610f89888888610bf8565b73ffffffffffffffffffffffffffffffffffffffff16630902f1ac6040518163ffffffff1660e01b815260040160606040518083038186803b158015610fce57600080fd5b505afa158015610fe2573d6000803e3d6000fd5b505050506040513d601f19601f820116820180604052508101906110069190611517565b506dffffffffffffffffffffffffffff1691506dffffffffffffffffffffffffffff1691508273ffffffffffffffffffffffffffffffffffffffff168773ffffffffffffffffffffffffffffffffffffffff1614611065578082611068565b81815b8095508196505050505050935093915050565b60008084116110bf576040517f08c379a00000000000000000000000000000000000000000000000000000000081526004016110b690611c99565b60405180910390fd5b6000831180156110cf5750600082115b61110e576040517f08c379a000000000000000000000000000000000000000000000000000000000815260040161110590611bd9565b60405180910390fd5b60006111256103e5866112af90919063ffffffff16565b9050600061113c84836112af90919063ffffffff16565b90506000611167836111596103e8896112af90919063ffffffff16565b61131c90919063ffffffff16565b905080826111759190611e0b565b93505050509392505050565b6000808273ffffffffffffffffffffffffffffffffffffffff168473ffffffffffffffffffffffffffffffffffffffff1614156111f3576040517f08c379a00000000000000000000000000000000000000000000000000000000081526004016111ea90611b99565b60405180910390fd5b8273ffffffffffffffffffffffffffffffffffffffff168473ffffffffffffffffffffffffffffffffffffffff161061122d578284611230565b83835b8092508193505050600073ffffffffffffffffffffffffffffffffffffffff168273ffffffffffffffffffffffffffffffffffffffff1614156112a8576040517f08c379a000000000000000000000000000000000000000000000000000000000815260040161129f90611c59565b60405180910390fd5b9250929050565b6000808214806112d75750828283856112c89190611e3c565b9250826112d59190611e0b565b145b611316576040517f08c379a000000000000000000000000000000000000000000000000000000000815260040161130d90611b59565b60405180910390fd5b92915050565b600082828461132b9190611db5565b915081101561136f576040517f08c379a000000000000000000000000000000000000000000000000000000000815260040161136690611b79565b60405180910390fd5b92915050565b600061138861138384611d51565b611d20565b905080838252602082019050828560208602820111156113a757600080fd5b60005b858110156113d757816113bd88826113e1565b8452602084019350602083019250506001810190506113aa565b5050509392505050565b6000813590506113f0816120bf565b92915050565b600082601f83011261140757600080fd5b8135611417848260208601611375565b91505092915050565b60008151905061142f816120d6565b92915050565b600081519050611444816120ed565b92915050565b60008135905061145981612104565b92915050565b60008151905061146e81612104565b92915050565b6000815190506114838161211b565b92915050565b60006020828403121561149b57600080fd5b60006114a9848285016113e1565b91505092915050565b600080604083850312156114c557600080fd5b60006114d3858286016113e1565b92505060206114e48582860161144a565b9150509250929050565b60006020828403121561150057600080fd5b600061150e84828501611420565b91505092915050565b60008060006060848603121561152c57600080fd5b600061153a86828701611435565b935050602061154b86828701611435565b925050604061155c86828701611474565b9150509250925092565b60006020828403121561157857600080fd5b60006115868482850161145f565b91505092915050565b6000806000606084860312156115a457600080fd5b60006115b28682870161144a565b93505060206115c38682870161144a565b925050604084013567ffffffffffffffff8111156115e057600080fd5b6115ec868287016113f6565b9150509250925092565b6115ff81611eca565b82525050565b61161661161182611eca565b611fe6565b82525050565b61162581611edc565b82525050565b61163c61163782611ee8565b611ff8565b82525050565b600061164d82611d7d565b6116578185611d88565b9350611667818560208601611f6a565b611670816120a1565b840191505092915050565b61168481611f46565b82525050565b6000611697601483611d99565b91507f64732d6d6174682d6d756c2d6f766572666c6f770000000000000000000000006000830152602082019050919050565b60006116d7601483611d99565b91507f64732d6d6174682d6164642d6f766572666c6f770000000000000000000000006000830152602082019050919050565b6000611717602583611d99565b91507f556e697377617056324c6962726172793a204944454e544943414c5f4144445260008301527f45535345530000000000000000000000000000000000000000000000000000006020830152604082019050919050565b600061177d602083611daa565b91507f96e8ac4277198ff8b6f785478aa9a39f403cb768dd02cbee326c3e7da348845f6000830152602082019050919050565b60006117bd601e83611d99565b91507f556e697377617056324c6962726172793a20494e56414c49445f5041544800006000830152602082019050919050565b60006117fd602883611d99565b91507f556e697377617056324c6962726172793a20494e53554646494349454e545f4c60008301527f49515549444954590000000000000000000000000000000000000000000000006020830152604082019050919050565b6000611863600183611daa565b91507fff000000000000000000000000000000000000000000000000000000000000006000830152600182019050919050565b60006118a3601783611d99565b91507f5573657220616c726561647920617574686f72697a65640000000000000000006000830152602082019050919050565b60006118e3600983611d99565b91507f4e6f74206f776e657200000000000000000000000000000000000000000000006000830152602082019050919050565b6000611923602b83611d99565b91507f556e69737761705632526f757465723a20494e53554646494349454e545f4f5560008301527f545055545f414d4f554e540000000000000000000000000000000000000000006020830152604082019050919050565b6000611989601e83611d99565b91507f556e697377617056324c6962726172793a205a45524f5f4144445245535300006000830152602082019050919050565b60006119c9601683611d99565b91507f4e6f7420617574686f72697a656420746f2073776170000000000000000000006000830152602082019050919050565b6000611a09602b83611d99565b91507f556e697377617056324c6962726172793a20494e53554646494349454e545f4960008301527f4e5055545f414d4f554e540000000000000000000000000000000000000000006020830152604082019050919050565b611a6b81611f2c565b82525050565b6000611a7d8285611605565b601482019150611a8d8284611605565b6014820191508190509392505050565b6000611aa882611856565b9150611ab48285611605565b601482019150611ac4828461162b565b602082019150611ad382611770565b91508190509392505050565b6000602082019050611af460008301846115f6565b92915050565b6000604082019050611b0f60008301856115f6565b611b1c6020830184611a62565b9392505050565b6000602082019050611b38600083018461161c565b92915050565b6000602082019050611b53600083018461167b565b92915050565b60006020820190508181036000830152611b728161168a565b9050919050565b60006020820190508181036000830152611b92816116ca565b9050919050565b60006020820190508181036000830152611bb28161170a565b9050919050565b60006020820190508181036000830152611bd2816117b0565b9050919050565b60006020820190508181036000830152611bf2816117f0565b9050919050565b60006020820190508181036000830152611c1281611896565b9050919050565b60006020820190508181036000830152611c32816118d6565b9050919050565b60006020820190508181036000830152611c5281611916565b9050919050565b60006020820190508181036000830152611c728161197c565b9050919050565b60006020820190508181036000830152611c92816119bc565b9050919050565b60006020820190508181036000830152611cb2816119fc565b9050919050565b6000602082019050611cce6000830184611a62565b92915050565b6000608082019050611ce96000830187611a62565b611cf66020830186611a62565b611d0360408301856115f6565b8181036060830152611d158184611642565b905095945050505050565b6000604051905081810181811067ffffffffffffffff82111715611d4757611d46612072565b5b8060405250919050565b600067ffffffffffffffff821115611d6c57611d6b612072565b5b602082029050602081019050919050565b600081519050919050565b600082825260208201905092915050565b600082825260208201905092915050565b600081905092915050565b6000611dc082611f2c565b9150611dcb83611f2c565b9250827fffffffffffffffffffffffffffffffffffffffffffffffffffffffffffffffff03821115611e0057611dff612014565b5b828201905092915050565b6000611e1682611f2c565b9150611e2183611f2c565b925082611e3157611e30612043565b5b828204905092915050565b6000611e4782611f2c565b9150611e5283611f2c565b9250817fffffffffffffffffffffffffffffffffffffffffffffffffffffffffffffffff0483118215151615611e8b57611e8a612014565b5b828202905092915050565b6000611ea182611f2c565b9150611eac83611f2c565b925082821015611ebf57611ebe612014565b5b828203905092915050565b6000611ed582611f0c565b9050919050565b60008115159050919050565b6000819050919050565b60006dffffffffffffffffffffffffffff82169050919050565b600073ffffffffffffffffffffffffffffffffffffffff82169050919050565b6000819050919050565b600063ffffffff82169050919050565b6000611f5182611f58565b9050919050565b6000611f6382611f0c565b9050919050565b60005b83811015611f88578082015181840152602081019050611f6d565b83811115611f97576000848401525b50505050565b6000611fa882611f2c565b91507fffffffffffffffffffffffffffffffffffffffffffffffffffffffffffffffff821415611fdb57611fda612014565b5b600182019050919050565b6000611ff182612002565b9050919050565b6000819050919050565b600061200d826120b2565b9050919050565b7f4e487b7100000000000000000000000000000000000000000000000000000000600052601160045260246000fd5b7f4e487b7100000000000000000000000000000000000000000000000000000000600052601260045260246000fd5b7f4e487b7100000000000000000000000000000000000000000000000000000000600052604160045260246000fd5b6000601f19601f8301169050919050565b60008160601b9050919050565b6120c881611eca565b81146120d357600080fd5b50565b6120df81611edc565b81146120ea57600080fd5b50565b6120f681611ef2565b811461210157600080fd5b50565b61210d81611f2c565b811461211857600080fd5b50565b61212481611f36565b811461212f57600080fd5b5056fea2646970667358221220f079eb051c9e76ea8dc472ba20dbf26eed8c0b6181abdc7fe20129bc649cb81164736f6c63430008000033",
  "linkReferences": {},
  "deployedLinkReferences": {}
}