{
  "_format": "hh-sol-artifact-1",
  "contractName": "Sandwich",
  "sourceName": "contracts/Sandwich.sol",
  "abi": [
    {
      "inputs": [
        {
          "internalType": "address",
          "name": "_WETH",
          "type": "address"
        }
      ],
      "stateMutability": "nonpayable",
      "type": "constructor"
    },
    {
      "inputs": [],
      "name": "WETH",
      "outputs": [
        {
          "internalType": "contract IWETH",
          "name": "",
          "type": "address"
        }
      ],
      "stateMutability": "view",
      "type": "function"
    },
    {
      "inputs": [
        {
          "internalType": "address",
          "name": "user",
          "type": "address"
        }
      ],
      "name": "addAuthority",
      "outputs": [],
      "stateMutability": "nonpayable",
      "type": "function"
    },
    {
      "inputs": [],
      "name": "factory",
      "outputs": [
        {
          "internalType": "address",
          "name": "",
          "type": "address"
        }
      ],
      "stateMutability": "view",
      "type": "function"
    },
    {
      "inputs": [
        {
          "internalType": "address",
          "name": "",
          "type": "address"
        }
      ],
      "name": "isAuthorized",
      "outputs": [
        {
          "internalType": "bool",
          "name": "",
          "type": "bool"
        }
      ],
      "stateMutability": "view",
      "type": "function"
    },
    {
      "inputs": [
        {
          "internalType": "uint256",
          "name": "amountIn",
          "type": "uint256"
        },
        {
          "internalType": "uint256",
          "name": "amountOutMin",
          "type": "uint256"
        },
        {
          "internalType": "address[]",
          "name": "path",
          "type": "address[]"
        }
      ],
      "name": "swap",
      "outputs": [],
      "stateMutability": "nonpayable",
      "type": "function"
    },
    {
      "inputs": [
        {
          "internalType": "address",
          "name": "token",
          "type": "address"
        }
      ],
      "name": "tokenBalance",
      "outputs": [
        {
          "internalType": "uint256",
          "name": "balance",
          "type": "uint256"
        }
      ],
      "stateMutability": "view",
      "type": "function"
    },
    {
      "inputs": [
        {
          "internalType": "address",
          "name": "token",
          "type": "address"
        },
        {
          "internalType": "uint256",
          "name": "amount",
          "type": "uint256"
        }
      ],
      "name": "withdraw",
      "outputs": [],
      "stateMutability": "nonpayable",
      "type": "function"
    },
    {
      "stateMutability": "payable",
      "type": "receive"
    }
  ],
  "bytecode": "0x608060405234801561001057600080fd5b506040516118563803806118568339818101604052602081101561003357600080fd5b8101908080519060200190929190505050336000806101000a81548173ffffffffffffffffffffffffffffffffffffffff021916908373ffffffffffffffffffffffffffffffffffffffff1602179055506001600260003373ffffffffffffffffffffffffffffffffffffffff1673ffffffffffffffffffffffffffffffffffffffff16815260200190815260200160002060006101000a81548160ff02191690831515021790555080600160006101000a81548173ffffffffffffffffffffffffffffffffffffffff021916908373ffffffffffffffffffffffffffffffffffffffff160217905550506117298061012d6000396000f3fe6080604052600436106100745760003560e01c8063c45a01551161004e578063c45a015514610284578063eedc966a146102db578063f3fef3a314610340578063fe9fbb801461039b576100fe565b806326defa731461010357806399585aac14610154578063ad5c46481461022d576100fe565b366100fe57600160009054906101000a900473ffffffffffffffffffffffffffffffffffffffff1673ffffffffffffffffffffffffffffffffffffffff1663d0e30db0346040518263ffffffff1660e01b81526004016000604051808303818588803b1580156100e357600080fd5b505af11580156100f7573d6000803e3d6000fd5b5050505050005b600080fd5b34801561010f57600080fd5b506101526004803603602081101561012657600080fd5b81019080803573ffffffffffffffffffffffffffffffffffffffff169060200190929190505050610404565b005b34801561016057600080fd5b5061022b6004803603606081101561017757600080fd5b810190808035906020019092919080359060200190929190803590602001906401000000008111156101a857600080fd5b8201836020820111156101ba57600080fd5b803590602001918460208302840111640100000000831117156101dc57600080fd5b919080806020026020016040519081016040528093929190818152602001838360200280828437600081840152601f19601f8201169050808301925050505050505091929192905050506105e1565b005b34801561023957600080fd5b50610242610875565b604051808273ffffffffffffffffffffffffffffffffffffffff1673ffffffffffffffffffffffffffffffffffffffff16815260200191505060405180910390f35b34801561029057600080fd5b5061029961089b565b604051808273ffffffffffffffffffffffffffffffffffffffff1673ffffffffffffffffffffffffffffffffffffffff16815260200191505060405180910390f35b3480156102e757600080fd5b5061032a600480360360208110156102fe57600080fd5b81019080803573ffffffffffffffffffffffffffffffffffffffff1690602001909291905050506108b3565b6040518082815260200191505060405180910390f35b34801561034c57600080fd5b506103996004803603604081101561036357600080fd5b81019080803573ffffffffffffffffffffffffffffffffffffffff16906020019092919080359060200190929190505050610974565b005b3480156103a757600080fd5b506103ea600480360360208110156103be57600080fd5b81019080803573ffffffffffffffffffffffffffffffffffffffff169060200190929190505050610be2565b604051808215151515815260200191505060405180910390f35b6000809054906101000a900473ffffffffffffffffffffffffffffffffffffffff1673ffffffffffffffffffffffffffffffffffffffff163373ffffffffffffffffffffffffffffffffffffffff16146104c6576040517f08c379a00000000000000000000000000000000000000000000000000000000081526004018080602001828103825260098152602001807f4e6f74206f776e6572000000000000000000000000000000000000000000000081525060200191505060405180910390fd5b600260008273ffffffffffffffffffffffffffffffffffffffff1673ffffffffffffffffffffffffffffffffffffffff16815260200190815260200160002060009054906101000a900460ff1615610586576040517f08c379a00000000000000000000000000000000000000000000000000000000081526004018080602001828103825260178152602001807f5573657220616c726561647920617574686f72697a656400000000000000000081525060200191505060405180910390fd5b6001600260008373ffffffffffffffffffffffffffffffffffffffff1673ffffffffffffffffffffffffffffffffffffffff16815260200190815260200160002060006101000a81548160ff02191690831515021790555050565b600260003373ffffffffffffffffffffffffffffffffffffffff1673ffffffffffffffffffffffffffffffffffffffff16815260200190815260200160002060009054906101000a900460ff166106a0576040517f08c379a00000000000000000000000000000000000000000000000000000000081526004018080602001828103825260168152602001807f4e6f7420617574686f72697a656420746f20737761700000000000000000000081525060200191505060405180910390fd5b60606106c1735c69bee701ef814a2b6a3edd4b1652cb9cc5aa6f8584610c02565b905082816001835103815181106106d457fe5b60200260200101511015610733576040517f08c379a000000000000000000000000000000000000000000000000000000000815260040180806020018281038252602b81526020018061169e602b913960400191505060405180910390fd5b8160008151811061074057fe5b602002602001015173ffffffffffffffffffffffffffffffffffffffff1663a9059cbb6107aa735c69bee701ef814a2b6a3edd4b1652cb9cc5aa6f8560008151811061078857fe5b60200260200101518660018151811061079d57fe5b6020026020010151610d7a565b836000815181106107b757fe5b60200260200101516040518363ffffffff1660e01b8152600401808373ffffffffffffffffffffffffffffffffffffffff1673ffffffffffffffffffffffffffffffffffffffff16815260200182815260200192505050602060405180830381600087803b15801561082857600080fd5b505af115801561083c573d6000803e3d6000fd5b505050506040513d602081101561085257600080fd5b81019080805190602001909291905050505061086f818330610ed5565b50505050565b600160009054906101000a900473ffffffffffffffffffffffffffffffffffffffff1681565b735c69bee701ef814a2b6a3edd4b1652cb9cc5aa6f81565b60008173ffffffffffffffffffffffffffffffffffffffff166370a08231306040518263ffffffff1660e01b8152600401808273ffffffffffffffffffffffffffffffffffffffff1673ffffffffffffffffffffffffffffffffffffffff16815260200191505060206040518083038186803b15801561093257600080fd5b505afa158015610946573d6000803e3d6000fd5b505050506040513d602081101561095c57600080fd5b81019080805190602001909291905050509050919050565b6000809054906101000a900473ffffffffffffffffffffffffffffffffffffffff1673ffffffffffffffffffffffffffffffffffffffff163373ffffffffffffffffffffffffffffffffffffffff1614610a36576040517f08c379a00000000000000000000000000000000000000000000000000000000081526004018080602001828103825260098152602001807f4e6f74206f776e6572000000000000000000000000000000000000000000000081525060200191505060405180910390fd5b808273ffffffffffffffffffffffffffffffffffffffff166370a08231306040518263ffffffff1660e01b8152600401808273ffffffffffffffffffffffffffffffffffffffff1673ffffffffffffffffffffffffffffffffffffffff16815260200191505060206040518083038186803b158015610ab457600080fd5b505afa158015610ac8573d6000803e3d6000fd5b505050506040513d6020811015610ade57600080fd5b81019080805190602001909291905050501015610afa57600080fd5b8173ffffffffffffffffffffffffffffffffffffffff1663a9059cbb6000809054906101000a900473ffffffffffffffffffffffffffffffffffffffff16836040518363ffffffff1660e01b8152600401808373ffffffffffffffffffffffffffffffffffffffff1673ffffffffffffffffffffffffffffffffffffffff16815260200182815260200192505050602060405180830381600087803b158015610ba257600080fd5b505af1158015610bb6573d6000803e3d6000fd5b505050506040513d6020811015610bcc57600080fd5b8101908080519060200190929190505050505050565b60026020528060005260406000206000915054906101000a900460ff1681565b6060600282511015610c7c576040517f08c379a000000000000000000000000000000000000000000000000000000000815260040180806020018281038252601e8152602001807f556e697377617056324c6962726172793a20494e56414c49445f50415448000081525060200191505060405180910390fd5b815167ffffffffffffffff81118015610c9457600080fd5b50604051908082528060200260200182016040528015610cc35781602001602082028036833780820191505090505b5090508281600081518110610cd457fe5b60200260200101818152505060005b6001835103811015610d7257600080610d2687868581518110610d0257fe5b6020026020010151876001870181518110610d1957fe5b6020026020010151611168565b91509150610d48848481518110610d3957fe5b60200260200101518383611291565b846001850181518110610d5757fe5b60200260200101818152505050508080600101915050610ce3565b509392505050565b6000806000610d8985856113c1565b91509150858282604051602001808373ffffffffffffffffffffffffffffffffffffffff1673ffffffffffffffffffffffffffffffffffffffff1660601b81526014018273ffffffffffffffffffffffffffffffffffffffff1673ffffffffffffffffffffffffffffffffffffffff1660601b8152601401925050506040516020818303038152906040528051906020012060405160200180807fff000000000000000000000000000000000000000000000000000000000000008152506001018373ffffffffffffffffffffffffffffffffffffffff1673ffffffffffffffffffffffffffffffffffffffff1660601b8152601401828152602001807f96e8ac4277198ff8b6f785478aa9a39f403cb768dd02cbee326c3e7da348845f815250602001925050506040516020818303038152906040528051906020012060001c925050509392505050565b60005b600183510381101561116257600080848381518110610ef357fe5b6020026020010151856001850181518110610f0a57fe5b6020026020010151915091506000610f2283836113c1565b5090506000876001860181518110610f3657fe5b602002602001015190506000808373ffffffffffffffffffffffffffffffffffffffff168673ffffffffffffffffffffffffffffffffffffffff1614610f7e57826000610f82565b6000835b91509150600060028a51038810610f995788610fcf565b610fce735c69bee701ef814a2b6a3edd4b1652cb9cc5aa6f878c60028c0181518110610fc157fe5b6020026020010151610d7a565b5b9050610ff0735c69bee701ef814a2b6a3edd4b1652cb9cc5aa6f8888610d7a565b73ffffffffffffffffffffffffffffffffffffffff1663022c0d9f848484600067ffffffffffffffff8111801561102657600080fd5b506040519080825280601f01601f1916602001820160405280156110595781602001600182028036833780820191505090505b506040518563ffffffff1660e01b8152600401808581526020018481526020018373ffffffffffffffffffffffffffffffffffffffff1673ffffffffffffffffffffffffffffffffffffffff16815260200180602001828103825283818151815260200191508051906020019080838360005b838110156110e75780820151818401526020810190506110cc565b50505050905090810190601f1680156111145780820380516001836020036101000a031916815260200191505b5095505050505050600060405180830381600087803b15801561113657600080fd5b505af115801561114a573d6000803e3d6000fd5b50505050505050505050508080600101915050610ed8565b50505050565b600080600061117785856113c1565b509050600080611188888888610d7a565b73ffffffffffffffffffffffffffffffffffffffff16630902f1ac6040518163ffffffff1660e01b815260040160606040518083038186803b1580156111cd57600080fd5b505afa1580156111e1573d6000803e3d6000fd5b505050506040513d60608110156111f757600080fd5b81019080805190602001909291908051906020019092919080519060200190929190505050506dffffffffffffffffffffffffffff1691506dffffffffffffffffffffffffffff1691508273ffffffffffffffffffffffffffffffffffffffff168773ffffffffffffffffffffffffffffffffffffffff161461127b57808261127e565b81815b8095508196505050505050935093915050565b60008084116112eb576040517f08c379a000000000000000000000000000000000000000000000000000000000815260040180806020018281038252602b8152602001806116c9602b913960400191505060405180910390fd5b6000831180156112fb5750600082115b611350576040517f08c379a00000000000000000000000000000000000000000000000000000000081526004018080602001828103825260288152602001806116766028913960400191505060405180910390fd5b60006113676103e58661153890919063ffffffff16565b9050600061137e848361153890919063ffffffff16565b905060006113a98361139b6103e88961153890919063ffffffff16565b6115cd90919063ffffffff16565b90508082816113b457fe5b0493505050509392505050565b6000808273ffffffffffffffffffffffffffffffffffffffff168473ffffffffffffffffffffffffffffffffffffffff161415611449576040517f08c379a00000000000000000000000000000000000000000000000000000000081526004018080602001828103825260258152602001806116516025913960400191505060405180910390fd5b8273ffffffffffffffffffffffffffffffffffffffff168473ffffffffffffffffffffffffffffffffffffffff1610611483578284611486565b83835b8092508193505050600073ffffffffffffffffffffffffffffffffffffffff168273ffffffffffffffffffffffffffffffffffffffff161415611531576040517f08c379a000000000000000000000000000000000000000000000000000000000815260040180806020018281038252601e8152602001807f556e697377617056324c6962726172793a205a45524f5f41444452455353000081525060200191505060405180910390fd5b9250929050565b600080821480611555575082828385029250828161155257fe5b04145b6115c7576040517f08c379a00000000000000000000000000000000000000000000000000000000081526004018080602001828103825260148152602001807f64732d6d6174682d6d756c2d6f766572666c6f7700000000000000000000000081525060200191505060405180910390fd5b92915050565b600082828401915081101561164a576040517f08c379a00000000000000000000000000000000000000000000000000000000081526004018080602001828103825260148152602001807f64732d6d6174682d6164642d6f766572666c6f7700000000000000000000000081525060200191505060405180910390fd5b9291505056fe556e697377617056324c6962726172793a204944454e544943414c5f414444524553534553556e697377617056324c6962726172793a20494e53554646494349454e545f4c4951554944495459556e69737761705632526f757465723a20494e53554646494349454e545f4f55545055545f414d4f554e54556e697377617056324c6962726172793a20494e53554646494349454e545f494e5055545f414d4f554e54a2646970667358221220f3272f88b3af97fd8fdb409fadb61e87cc6faf04922c91fe2eeac53c5088142e64736f6c63430006060033",
  "linkReferences": {},
  "deployedLinkReferences": {}
}