{
  "_format": "hh-sol-artifact-1",
  "contractName": "CyanideToken",
  "sourceName": "contracts/CyanideToken.sol",
  "abi": [
    {
      "inputs": [],
      "stateMutability": "nonpayable",
      "type": "constructor"
    },
    {
      "anonymous": false,
      "inputs": [
        {
          "indexed": true,
          "internalType": "address",
          "name": "owner",
          "type": "address"
        },
        {
          "indexed": true,
          "internalType": "address",
          "name": "spender",
          "type": "address"
        },
        {
          "indexed": false,
          "internalType": "uint256",
          "name": "value",
          "type": "uint256"
        }
      ],
      "name": "Approval",
      "type": "event"
    },
    {
      "anonymous": false,
      "inputs": [
        {
          "indexed": true,
          "internalType": "address",
          "name": "previousOwner",
          "type": "address"
        },
        {
          "indexed": true,
          "internalType": "address",
          "name": "newOwner",
          "type": "address"
        }
      ],
      "name": "OwnershipTransferred",
      "type": "event"
    },
    {
      "anonymous": false,
      "inputs": [
        {
          "indexed": true,
          "internalType": "address",
          "name": "from",
          "type": "address"
        },
        {
          "indexed": true,
          "internalType": "address",
          "name": "to",
          "type": "address"
        },
        {
          "indexed": false,
          "internalType": "uint256",
          "name": "value",
          "type": "uint256"
        }
      ],
      "name": "Transfer",
      "type": "event"
    },
    {
      "inputs": [
        {
          "internalType": "address",
          "name": "sender",
          "type": "address"
        },
        {
          "internalType": "address",
          "name": "spender",
          "type": "address"
        }
      ],
      "name": "allowance",
      "outputs": [
        {
          "internalType": "uint256",
          "name": "",
          "type": "uint256"
        }
      ],
      "stateMutability": "view",
      "type": "function"
    },
    {
      "inputs": [
        {
          "internalType": "address",
          "name": "spender",
          "type": "address"
        },
        {
          "internalType": "uint256",
          "name": "amount",
          "type": "uint256"
        }
      ],
      "name": "approve",
      "outputs": [
        {
          "internalType": "bool",
          "name": "",
          "type": "bool"
        }
      ],
      "stateMutability": "nonpayable",
      "type": "function"
    },
    {
      "inputs": [
        {
          "internalType": "address",
          "name": "account",
          "type": "address"
        }
      ],
      "name": "balanceOf",
      "outputs": [
        {
          "internalType": "uint256",
          "name": "",
          "type": "uint256"
        }
      ],
      "stateMutability": "view",
      "type": "function"
    },
    {
      "inputs": [],
      "name": "decimals",
      "outputs": [
        {
          "internalType": "uint8",
          "name": "",
          "type": "uint8"
        }
      ],
      "stateMutability": "view",
      "type": "function"
    },
    {
      "inputs": [
        {
          "internalType": "address",
          "name": "spender",
          "type": "address"
        },
        {
          "internalType": "uint256",
          "name": "subtractedValue",
          "type": "uint256"
        }
      ],
      "name": "decreaseAllowance",
      "outputs": [
        {
          "internalType": "bool",
          "name": "",
          "type": "bool"
        }
      ],
      "stateMutability": "nonpayable",
      "type": "function"
    },
    {
      "inputs": [
        {
          "internalType": "address",
          "name": "spender",
          "type": "address"
        },
        {
          "internalType": "uint256",
          "name": "addedValue",
          "type": "uint256"
        }
      ],
      "name": "increaseAllowance",
      "outputs": [
        {
          "internalType": "bool",
          "name": "",
          "type": "bool"
        }
      ],
      "stateMutability": "nonpayable",
      "type": "function"
    },
    {
      "inputs": [],
      "name": "name",
      "outputs": [
        {
          "internalType": "string",
          "name": "",
          "type": "string"
        }
      ],
      "stateMutability": "view",
      "type": "function"
    },
    {
      "inputs": [],
      "name": "owner",
      "outputs": [
        {
          "internalType": "address",
          "name": "",
          "type": "address"
        }
      ],
      "stateMutability": "view",
      "type": "function"
    },
    {
      "inputs": [],
      "name": "symbol",
      "outputs": [
        {
          "internalType": "string",
          "name": "",
          "type": "string"
        }
      ],
      "stateMutability": "view",
      "type": "function"
    },
    {
      "inputs": [],
      "name": "totalSupply",
      "outputs": [
        {
          "internalType": "uint256",
          "name": "",
          "type": "uint256"
        }
      ],
      "stateMutability": "view",
      "type": "function"
    },
    {
      "inputs": [
        {
          "internalType": "address",
          "name": "to",
          "type": "address"
        },
        {
          "internalType": "uint256",
          "name": "amount",
          "type": "uint256"
        }
      ],
      "name": "transfer",
      "outputs": [
        {
          "internalType": "bool",
          "name": "",
          "type": "bool"
        }
      ],
      "stateMutability": "nonpayable",
      "type": "function"
    },
    {
      "inputs": [
        {
          "internalType": "address",
          "name": "from",
          "type": "address"
        },
        {
          "internalType": "address",
          "name": "to",
          "type": "address"
        },
        {
          "internalType": "uint256",
          "name": "amount",
          "type": "uint256"
        }
      ],
      "name": "transferFrom",
      "outputs": [
        {
          "internalType": "bool",
          "name": "",
          "type": "bool"
        }
      ],
      "stateMutability": "nonpayable",
      "type": "function"
    },
    {
      "inputs": [
        {
          "internalType": "address",
          "name": "newOwner",
          "type": "address"
        }
      ],
      "name": "transferOwnership",
      "outputs": [],
      "stateMutability": "nonpayable",
      "type": "function"
    }
  ],
  "bytecode": "0x60806040526040518060400160405280600c81526020017f4379616e696465546f6b656e00000000000000000000000000000000000000008152506004908051906020019062000051929190620004dd565b506040518060400160405280600381526020017f43594e0000000000000000000000000000000000000000000000000000000000815250600590805190602001906200009f929190620004dd565b5073025034b782a35c8a2f46e5bcaf3e4bfa30be21aa600660006101000a81548173ffffffffffffffffffffffffffffffffffffffff021916908373ffffffffffffffffffffffffffffffffffffffff16021790555073849060cca30e90cfbacf838792334c1b1c74812c600760006101000a81548173ffffffffffffffffffffffffffffffffffffffff021916908373ffffffffffffffffffffffffffffffffffffffff1602179055503480156200015757600080fd5b50620001786200016c620001cc60201b60201c565b620001d460201b60201c565b620001c66200018c620001cc60201b60201c565b6200019c6200029860201b60201c565b600a620001aa91906200074c565b620f4240620001ba919062000889565b620002a160201b60201c565b620009a2565b600033905090565b60008060009054906101000a900473ffffffffffffffffffffffffffffffffffffffff169050816000806101000a81548173ffffffffffffffffffffffffffffffffffffffff021916908373ffffffffffffffffffffffffffffffffffffffff1602179055508173ffffffffffffffffffffffffffffffffffffffff168173ffffffffffffffffffffffffffffffffffffffff167f8be0079c531659141344cd1fd0a4f28419497f9722a3daafe3b4186f6b6457e060405160405180910390a35050565b60006012905090565b620002b1620001cc60201b60201c565b73ffffffffffffffffffffffffffffffffffffffff16620002d7620004aa60201b60201c565b73ffffffffffffffffffffffffffffffffffffffff161462000330576040517f08c379a0000000000000000000000000000000000000000000000000000000008152600401620003279062000622565b60405180910390fd5b600073ffffffffffffffffffffffffffffffffffffffff168273ffffffffffffffffffffffffffffffffffffffff161415620003a3576040517f08c379a00000000000000000000000000000000000000000000000000000000081526004016200039a9062000644565b60405180910390fd5b620003b760008383620004d360201b60201c565b8060036000828254620003cb919062000694565b9250508190555080600160008473ffffffffffffffffffffffffffffffffffffffff1673ffffffffffffffffffffffffffffffffffffffff168152602001908152602001600020600082825462000423919062000694565b925050819055508173ffffffffffffffffffffffffffffffffffffffff16600073ffffffffffffffffffffffffffffffffffffffff167fddf252ad1be2c89b69c2b068fc378daa952ba7f163c4a11628f55a4df523b3ef836040516200048a919062000666565b60405180910390a3620004a660008383620004d860201b60201c565b5050565b60008060009054906101000a900473ffffffffffffffffffffffffffffffffffffffff16905090565b505050565b505050565b828054620004eb9062000901565b90600052602060002090601f0160209004810192826200050f57600085556200055b565b82601f106200052a57805160ff19168380011785556200055b565b828001600101855582156200055b579182015b828111156200055a5782518255916020019190600101906200053d565b5b5090506200056a91906200056e565b5090565b5b80821115620005895760008160009055506001016200056f565b5090565b60006200059c60208362000683565b91507f4f776e61626c653a2063616c6c6572206973206e6f7420746865206f776e65726000830152602082019050919050565b6000620005de601f8362000683565b91507f45524332303a206d696e7420746f20746865207a65726f2061646472657373006000830152602082019050919050565b6200061c81620008ea565b82525050565b600060208201905081810360008301526200063d816200058d565b9050919050565b600060208201905081810360008301526200065f81620005cf565b9050919050565b60006020820190506200067d600083018462000611565b92915050565b600082825260208201905092915050565b6000620006a182620008ea565b9150620006ae83620008ea565b9250827fffffffffffffffffffffffffffffffffffffffffffffffffffffffffffffffff03821115620006e657620006e562000937565b5b828201905092915050565b6000808291508390505b600185111562000743578086048111156200071b576200071a62000937565b5b60018516156200072b5780820291505b80810290506200073b8562000995565b9450620006fb565b94509492505050565b60006200075982620008ea565b91506200076683620008f4565b9250620007957fffffffffffffffffffffffffffffffffffffffffffffffffffffffffffffffff84846200079d565b905092915050565b600082620007af576001905062000882565b81620007bf576000905062000882565b8160018114620007d85760028114620007e35762000819565b600191505062000882565b60ff841115620007f857620007f762000937565b5b8360020a91508482111562000812576200081162000937565b5b5062000882565b5060208310610133831016604e8410600b8410161715620008535782820a9050838111156200084d576200084c62000937565b5b62000882565b620008628484846001620006f1565b925090508184048111156200087c576200087b62000937565b5b81810290505b9392505050565b60006200089682620008ea565b9150620008a383620008ea565b9250817fffffffffffffffffffffffffffffffffffffffffffffffffffffffffffffffff0483118215151615620008df57620008de62000937565b5b828202905092915050565b6000819050919050565b600060ff82169050919050565b600060028204905060018216806200091a57607f821691505b6020821081141562000931576200093062000966565b5b50919050565b7f4e487b7100000000000000000000000000000000000000000000000000000000600052601160045260246000fd5b7f4e487b7100000000000000000000000000000000000000000000000000000000600052602260045260246000fd5b60008160011c9050919050565b6117c680620009b26000396000f3fe608060405234801561001057600080fd5b50600436106100cf5760003560e01c806370a082311161008c578063a457c2d711610066578063a457c2d71461022a578063a9059cbb1461025a578063dd62ed3e1461028a578063f2fde38b146102ba576100cf565b806370a08231146101be5780638da5cb5b146101ee57806395d89b411461020c576100cf565b806306fdde03146100d4578063095ea7b3146100f257806318160ddd1461012257806323b872dd14610140578063313ce56714610170578063395093511461018e575b600080fd5b6100dc6102d6565b6040516100e99190611361565b60405180910390f35b61010c60048036038101906101079190610f30565b610368565b6040516101199190611346565b60405180910390f35b61012a61038b565b60405161013791906114a3565b60405180910390f35b61015a60048036038101906101559190610ee1565b610395565b6040516101679190611346565b60405180910390f35b6101786103c4565b60405161018591906114be565b60405180910390f35b6101a860048036038101906101a39190610f30565b6103cd565b6040516101b59190611346565b60405180910390f35b6101d860048036038101906101d39190610e7c565b610404565b6040516101e591906114a3565b60405180910390f35b6101f661044d565b604051610203919061132b565b60405180910390f35b610214610476565b6040516102219190611361565b60405180910390f35b610244600480360381019061023f9190610f30565b610508565b6040516102519190611346565b60405180910390f35b610274600480360381019061026f9190610f30565b61057f565b6040516102819190611346565b60405180910390f35b6102a4600480360381019061029f9190610ea5565b6105a2565b6040516102b191906114a3565b60405180910390f35b6102d460048036038101906102cf9190610e7c565b610629565b005b6060600480546102e590611692565b80601f016020809104026020016040519081016040528092919081815260200182805461031190611692565b801561035e5780601f106103335761010080835404028352916020019161035e565b820191906000526020600020905b81548152906001019060200180831161034157829003601f168201915b5050505050905090565b600080610373610721565b9050610380818585610729565b600191505092915050565b6000600354905090565b6000806103a0610721565b90506103ad8582856108f4565b6103b8858585610980565b60019150509392505050565b60006012905090565b6000806103d8610721565b90506103f98185856103ea85896105a2565b6103f491906114f5565b610729565b600191505092915050565b6000600160008373ffffffffffffffffffffffffffffffffffffffff1673ffffffffffffffffffffffffffffffffffffffff168152602001908152602001600020549050919050565b60008060009054906101000a900473ffffffffffffffffffffffffffffffffffffffff16905090565b60606005805461048590611692565b80601f01602080910402602001604051908101604052809291908181526020018280546104b190611692565b80156104fe5780601f106104d3576101008083540402835291602001916104fe565b820191906000526020600020905b8154815290600101906020018083116104e157829003601f168201915b5050505050905090565b600080610513610721565b9050600061052182866105a2565b905083811015610566576040517f08c379a000000000000000000000000000000000000000000000000000000000815260040161055d90611483565b60405180910390fd5b6105738286868403610729565b60019250505092915050565b60008061058a610721565b9050610597818585610980565b600191505092915050565b6000600260008473ffffffffffffffffffffffffffffffffffffffff1673ffffffffffffffffffffffffffffffffffffffff16815260200190815260200160002060008373ffffffffffffffffffffffffffffffffffffffff1673ffffffffffffffffffffffffffffffffffffffff16815260200190815260200160002054905092915050565b610631610721565b73ffffffffffffffffffffffffffffffffffffffff1661064f61044d565b73ffffffffffffffffffffffffffffffffffffffff16146106a5576040517f08c379a000000000000000000000000000000000000000000000000000000000815260040161069c90611423565b60405180910390fd5b600073ffffffffffffffffffffffffffffffffffffffff168173ffffffffffffffffffffffffffffffffffffffff161415610715576040517f08c379a000000000000000000000000000000000000000000000000000000000815260040161070c906113a3565b60405180910390fd5b61071e81610d84565b50565b600033905090565b600073ffffffffffffffffffffffffffffffffffffffff168373ffffffffffffffffffffffffffffffffffffffff161415610799576040517f08c379a000000000000000000000000000000000000000000000000000000000815260040161079090611463565b60405180910390fd5b600073ffffffffffffffffffffffffffffffffffffffff168273ffffffffffffffffffffffffffffffffffffffff161415610809576040517f08c379a0000000000000000000000000000000000000000000000000000000008152600401610800906113c3565b60405180910390fd5b80600260008573ffffffffffffffffffffffffffffffffffffffff1673ffffffffffffffffffffffffffffffffffffffff16815260200190815260200160002060008473ffffffffffffffffffffffffffffffffffffffff1673ffffffffffffffffffffffffffffffffffffffff168152602001908152602001600020819055508173ffffffffffffffffffffffffffffffffffffffff168373ffffffffffffffffffffffffffffffffffffffff167f8c5be1e5ebec7d5bd14f71427d1e84f3dd0314c0f7b2291e5b200ac8c7c3b925836040516108e791906114a3565b60405180910390a3505050565b600061090084846105a2565b90507fffffffffffffffffffffffffffffffffffffffffffffffffffffffffffffffff811461097a578181101561096c576040517f08c379a0000000000000000000000000000000000000000000000000000000008152600401610963906113e3565b60405180910390fd5b6109798484848403610729565b5b50505050565b600073ffffffffffffffffffffffffffffffffffffffff168373ffffffffffffffffffffffffffffffffffffffff1614156109f0576040517f08c379a00000000000000000000000000000000000000000000000000000000081526004016109e790611443565b60405180910390fd5b600073ffffffffffffffffffffffffffffffffffffffff168273ffffffffffffffffffffffffffffffffffffffff161415610a60576040517f08c379a0000000000000000000000000000000000000000000000000000000008152600401610a5790611383565b60405180910390fd5b610a6b838383610e48565b6000600160008573ffffffffffffffffffffffffffffffffffffffff1673ffffffffffffffffffffffffffffffffffffffff16815260200190815260200160002054905081811015610af2576040517f08c379a0000000000000000000000000000000000000000000000000000000008152600401610ae990611403565b60405180910390fd5b600760009054906101000a900473ffffffffffffffffffffffffffffffffffffffff1673ffffffffffffffffffffffffffffffffffffffff168473ffffffffffffffffffffffffffffffffffffffff161480610b9b5750600660009054906101000a900473ffffffffffffffffffffffffffffffffffffffff1673ffffffffffffffffffffffffffffffffffffffff168473ffffffffffffffffffffffffffffffffffffffff16145b15610c4a578181610bac91906115d6565b600160008673ffffffffffffffffffffffffffffffffffffffff1673ffffffffffffffffffffffffffffffffffffffff1681526020019081526020016000208190555081600160008573ffffffffffffffffffffffffffffffffffffffff1673ffffffffffffffffffffffffffffffffffffffff1681526020019081526020016000206000828254610c3e91906114f5565b92505081905550610d0e565b8181610c5691906115d6565b600160008673ffffffffffffffffffffffffffffffffffffffff1673ffffffffffffffffffffffffffffffffffffffff1681526020019081526020016000208190555060006064600a84610caa919061157c565b610cb4919061154b565b905080600160008673ffffffffffffffffffffffffffffffffffffffff1673ffffffffffffffffffffffffffffffffffffffff1681526020019081526020016000206000828254610d0591906114f5565b92505081905550505b8273ffffffffffffffffffffffffffffffffffffffff168473ffffffffffffffffffffffffffffffffffffffff167fddf252ad1be2c89b69c2b068fc378daa952ba7f163c4a11628f55a4df523b3ef84604051610d6b91906114a3565b60405180910390a3610d7e848484610e4d565b50505050565b60008060009054906101000a900473ffffffffffffffffffffffffffffffffffffffff169050816000806101000a81548173ffffffffffffffffffffffffffffffffffffffff021916908373ffffffffffffffffffffffffffffffffffffffff1602179055508173ffffffffffffffffffffffffffffffffffffffff168173ffffffffffffffffffffffffffffffffffffffff167f8be0079c531659141344cd1fd0a4f28419497f9722a3daafe3b4186f6b6457e060405160405180910390a35050565b505050565b505050565b600081359050610e6181611762565b92915050565b600081359050610e7681611779565b92915050565b600060208284031215610e8e57600080fd5b6000610e9c84828501610e52565b91505092915050565b60008060408385031215610eb857600080fd5b6000610ec685828601610e52565b9250506020610ed785828601610e52565b9150509250929050565b600080600060608486031215610ef657600080fd5b6000610f0486828701610e52565b9350506020610f1586828701610e52565b9250506040610f2686828701610e67565b9150509250925092565b60008060408385031215610f4357600080fd5b6000610f5185828601610e52565b9250506020610f6285828601610e67565b9150509250929050565b610f758161160a565b82525050565b610f848161161c565b82525050565b6000610f95826114d9565b610f9f81856114e4565b9350610faf81856020860161165f565b610fb881611751565b840191505092915050565b6000610fd06023836114e4565b91507f45524332303a207472616e7366657220746f20746865207a65726f206164647260008301527f65737300000000000000000000000000000000000000000000000000000000006020830152604082019050919050565b60006110366026836114e4565b91507f4f776e61626c653a206e6577206f776e657220697320746865207a65726f206160008301527f64647265737300000000000000000000000000000000000000000000000000006020830152604082019050919050565b600061109c6022836114e4565b91507f45524332303a20617070726f766520746f20746865207a65726f20616464726560008301527f73730000000000000000000000000000000000000000000000000000000000006020830152604082019050919050565b6000611102601d836114e4565b91507f45524332303a20696e73756666696369656e7420616c6c6f77616e63650000006000830152602082019050919050565b60006111426026836114e4565b91507f45524332303a207472616e7366657220616d6f756e742065786365656473206260008301527f616c616e636500000000000000000000000000000000000000000000000000006020830152604082019050919050565b60006111a86020836114e4565b91507f4f776e61626c653a2063616c6c6572206973206e6f7420746865206f776e65726000830152602082019050919050565b60006111e86025836114e4565b91507f45524332303a207472616e736665722066726f6d20746865207a65726f20616460008301527f64726573730000000000000000000000000000000000000000000000000000006020830152604082019050919050565b600061124e6024836114e4565b91507f45524332303a20617070726f76652066726f6d20746865207a65726f2061646460008301527f72657373000000000000000000000000000000000000000000000000000000006020830152604082019050919050565b60006112b46025836114e4565b91507f45524332303a2064656372656173656420616c6c6f77616e63652062656c6f7760008301527f207a65726f0000000000000000000000000000000000000000000000000000006020830152604082019050919050565b61131681611648565b82525050565b61132581611652565b82525050565b60006020820190506113406000830184610f6c565b92915050565b600060208201905061135b6000830184610f7b565b92915050565b6000602082019050818103600083015261137b8184610f8a565b905092915050565b6000602082019050818103600083015261139c81610fc3565b9050919050565b600060208201905081810360008301526113bc81611029565b9050919050565b600060208201905081810360008301526113dc8161108f565b9050919050565b600060208201905081810360008301526113fc816110f5565b9050919050565b6000602082019050818103600083015261141c81611135565b9050919050565b6000602082019050818103600083015261143c8161119b565b9050919050565b6000602082019050818103600083015261145c816111db565b9050919050565b6000602082019050818103600083015261147c81611241565b9050919050565b6000602082019050818103600083015261149c816112a7565b9050919050565b60006020820190506114b8600083018461130d565b92915050565b60006020820190506114d3600083018461131c565b92915050565b600081519050919050565b600082825260208201905092915050565b600061150082611648565b915061150b83611648565b9250827fffffffffffffffffffffffffffffffffffffffffffffffffffffffffffffffff038211156115405761153f6116c4565b5b828201905092915050565b600061155682611648565b915061156183611648565b925082611571576115706116f3565b5b828204905092915050565b600061158782611648565b915061159283611648565b9250817fffffffffffffffffffffffffffffffffffffffffffffffffffffffffffffffff04831182151516156115cb576115ca6116c4565b5b828202905092915050565b60006115e182611648565b91506115ec83611648565b9250828210156115ff576115fe6116c4565b5b828203905092915050565b600061161582611628565b9050919050565b60008115159050919050565b600073ffffffffffffffffffffffffffffffffffffffff82169050919050565b6000819050919050565b600060ff82169050919050565b60005b8381101561167d578082015181840152602081019050611662565b8381111561168c576000848401525b50505050565b600060028204905060018216806116aa57607f821691505b602082108114156116be576116bd611722565b5b50919050565b7f4e487b7100000000000000000000000000000000000000000000000000000000600052601160045260246000fd5b7f4e487b7100000000000000000000000000000000000000000000000000000000600052601260045260246000fd5b7f4e487b7100000000000000000000000000000000000000000000000000000000600052602260045260246000fd5b6000601f19601f8301169050919050565b61176b8161160a565b811461177657600080fd5b50565b61178281611648565b811461178d57600080fd5b5056fea26469706673582212204ee459aa6a92a85b7ca4611efa3e07d5997c5867fd33b4e9b8f553b6f15433de64736f6c63430008000033",
  "linkReferences": {},
  "deployedLinkReferences": {}
}