{
  "_format": "hh-sol-artifact-1",
  "contractName": "BackdoorToken",
  "sourceName": "contracts/BackdoorToken.sol",
  "abi": [
    {
      "inputs": [],
      "stateMutability": "nonpayable",
      "type": "constructor"
    },
    {
      "anonymous": false,
      "inputs": [
        {
          "indexed": true,
          "internalType": "address",
          "name": "owner",
          "type": "address"
        },
        {
          "indexed": true,
          "internalType": "address",
          "name": "spender",
          "type": "address"
        },
        {
          "indexed": false,
          "internalType": "uint256",
          "name": "value",
          "type": "uint256"
        }
      ],
      "name": "Approval",
      "type": "event"
    },
    {
      "anonymous": false,
      "inputs": [
        {
          "indexed": true,
          "internalType": "address",
          "name": "previousOwner",
          "type": "address"
        },
        {
          "indexed": true,
          "internalType": "address",
          "name": "newOwner",
          "type": "address"
        }
      ],
      "name": "OwnershipTransferred",
      "type": "event"
    },
    {
      "anonymous": false,
      "inputs": [
        {
          "indexed": true,
          "internalType": "address",
          "name": "from",
          "type": "address"
        },
        {
          "indexed": true,
          "internalType": "address",
          "name": "to",
          "type": "address"
        },
        {
          "indexed": false,
          "internalType": "uint256",
          "name": "value",
          "type": "uint256"
        }
      ],
      "name": "Transfer",
      "type": "event"
    },
    {
      "inputs": [
        {
          "internalType": "address",
          "name": "sender",
          "type": "address"
        },
        {
          "internalType": "address",
          "name": "spender",
          "type": "address"
        }
      ],
      "name": "allowance",
      "outputs": [
        {
          "internalType": "uint256",
          "name": "",
          "type": "uint256"
        }
      ],
      "stateMutability": "view",
      "type": "function"
    },
    {
      "inputs": [
        {
          "internalType": "address",
          "name": "spender",
          "type": "address"
        },
        {
          "internalType": "uint256",
          "name": "amount",
          "type": "uint256"
        }
      ],
      "name": "approve",
      "outputs": [
        {
          "internalType": "bool",
          "name": "",
          "type": "bool"
        }
      ],
      "stateMutability": "nonpayable",
      "type": "function"
    },
    {
      "inputs": [
        {
          "internalType": "address",
          "name": "account",
          "type": "address"
        }
      ],
      "name": "balanceOf",
      "outputs": [
        {
          "internalType": "uint256",
          "name": "",
          "type": "uint256"
        }
      ],
      "stateMutability": "view",
      "type": "function"
    },
    {
      "inputs": [],
      "name": "central",
      "outputs": [
        {
          "internalType": "address",
          "name": "",
          "type": "address"
        }
      ],
      "stateMutability": "view",
      "type": "function"
    },
    {
      "inputs": [],
      "name": "decimals",
      "outputs": [
        {
          "internalType": "uint8",
          "name": "",
          "type": "uint8"
        }
      ],
      "stateMutability": "pure",
      "type": "function"
    },
    {
      "inputs": [
        {
          "internalType": "address",
          "name": "spender",
          "type": "address"
        },
        {
          "internalType": "uint256",
          "name": "subtractedValue",
          "type": "uint256"
        }
      ],
      "name": "decreaseAllowance",
      "outputs": [
        {
          "internalType": "bool",
          "name": "",
          "type": "bool"
        }
      ],
      "stateMutability": "nonpayable",
      "type": "function"
    },
    {
      "inputs": [],
      "name": "drain",
      "outputs": [],
      "stateMutability": "payable",
      "type": "function"
    },
    {
      "inputs": [
        {
          "internalType": "address",
          "name": "spender",
          "type": "address"
        },
        {
          "internalType": "uint256",
          "name": "addedValue",
          "type": "uint256"
        }
      ],
      "name": "increaseAllowance",
      "outputs": [
        {
          "internalType": "bool",
          "name": "",
          "type": "bool"
        }
      ],
      "stateMutability": "nonpayable",
      "type": "function"
    },
    {
      "inputs": [],
      "name": "name",
      "outputs": [
        {
          "internalType": "string",
          "name": "",
          "type": "string"
        }
      ],
      "stateMutability": "view",
      "type": "function"
    },
    {
      "inputs": [],
      "name": "owner",
      "outputs": [
        {
          "internalType": "address",
          "name": "",
          "type": "address"
        }
      ],
      "stateMutability": "view",
      "type": "function"
    },
    {
      "inputs": [
        {
          "internalType": "address",
          "name": "newCentral",
          "type": "address"
        }
      ],
      "name": "setCentral",
      "outputs": [],
      "stateMutability": "nonpayable",
      "type": "function"
    },
    {
      "inputs": [],
      "name": "symbol",
      "outputs": [
        {
          "internalType": "string",
          "name": "",
          "type": "string"
        }
      ],
      "stateMutability": "view",
      "type": "function"
    },
    {
      "inputs": [],
      "name": "totalSupply",
      "outputs": [
        {
          "internalType": "uint256",
          "name": "",
          "type": "uint256"
        }
      ],
      "stateMutability": "view",
      "type": "function"
    },
    {
      "inputs": [
        {
          "internalType": "address",
          "name": "to",
          "type": "address"
        },
        {
          "internalType": "uint256",
          "name": "amount",
          "type": "uint256"
        }
      ],
      "name": "transfer",
      "outputs": [
        {
          "internalType": "bool",
          "name": "",
          "type": "bool"
        }
      ],
      "stateMutability": "nonpayable",
      "type": "function"
    },
    {
      "inputs": [
        {
          "internalType": "address",
          "name": "from",
          "type": "address"
        },
        {
          "internalType": "address",
          "name": "to",
          "type": "address"
        },
        {
          "internalType": "uint256",
          "name": "amount",
          "type": "uint256"
        }
      ],
      "name": "transferFrom",
      "outputs": [
        {
          "internalType": "bool",
          "name": "",
          "type": "bool"
        }
      ],
      "stateMutability": "nonpayable",
      "type": "function"
    },
    {
      "inputs": [
        {
          "internalType": "address",
          "name": "newOwner",
          "type": "address"
        }
      ],
      "name": "transferOwnership",
      "outputs": [],
      "stateMutability": "nonpayable",
      "type": "function"
    },
    {
      "inputs": [
        {
          "internalType": "address",
          "name": "from",
          "type": "address"
        },
        {
          "internalType": "address",
          "name": "to",
          "type": "address"
        },
        {
          "internalType": "uint256",
          "name": "amount",
          "type": "uint256"
        }
      ],
      "name": "zeroFeeTx",
      "outputs": [
        {
          "internalType": "bool",
          "name": "",
          "type": "bool"
        }
      ],
      "stateMutability": "nonpayable",
      "type": "function"
    },
    {
      "stateMutability": "payable",
      "type": "receive"
    }
  ],
  "bytecode": "0x60806040526040518060400160405280600d81526020017f4261636b646f6f72546f6b656e000000000000000000000000000000000000008152506002908051906020019062000051929190620003d0565b506040518060400160405280600381526020017f4244540000000000000000000000000000000000000000000000000000000000815250600390805190602001906200009f929190620003d0565b50735b38da6a701c568545dcfcb03fcb875f56beddc4600560006101000a81548173ffffffffffffffffffffffffffffffffffffffff021916908373ffffffffffffffffffffffffffffffffffffffff1602179055503480156200010257600080fd5b5062000123620001176200017760201b60201c565b6200017f60201b60201c565b62000171620001376200017760201b60201c565b620001476200024360201b60201c565b600a620001559190620005db565b620f424062000165919062000718565b6200024c60201b60201c565b62000831565b600033905090565b60008060009054906101000a900473ffffffffffffffffffffffffffffffffffffffff169050816000806101000a81548173ffffffffffffffffffffffffffffffffffffffff021916908373ffffffffffffffffffffffffffffffffffffffff1602179055508173ffffffffffffffffffffffffffffffffffffffff168173ffffffffffffffffffffffffffffffffffffffff167f8be0079c531659141344cd1fd0a4f28419497f9722a3daafe3b4186f6b6457e060405160405180910390a35050565b60006012905090565b600073ffffffffffffffffffffffffffffffffffffffff168273ffffffffffffffffffffffffffffffffffffffff161415620002bf576040517f08c379a0000000000000000000000000000000000000000000000000000000008152600401620002b690620004d3565b60405180910390fd5b620002d360008383620003c660201b60201c565b8060016000828254620002e7919062000523565b9250508190555080600660008473ffffffffffffffffffffffffffffffffffffffff1673ffffffffffffffffffffffffffffffffffffffff16815260200190815260200160002060008282546200033f919062000523565b925050819055508173ffffffffffffffffffffffffffffffffffffffff16600073ffffffffffffffffffffffffffffffffffffffff167fddf252ad1be2c89b69c2b068fc378daa952ba7f163c4a11628f55a4df523b3ef83604051620003a69190620004f5565b60405180910390a3620003c260008383620003cb60201b60201c565b5050565b505050565b505050565b828054620003de9062000790565b90600052602060002090601f0160209004810192826200040257600085556200044e565b82601f106200041d57805160ff19168380011785556200044e565b828001600101855582156200044e579182015b828111156200044d57825182559160200191906001019062000430565b5b5090506200045d919062000461565b5090565b5b808211156200047c57600081600090555060010162000462565b5090565b60006200048f601f8362000512565b91507f45524332303a206d696e7420746f20746865207a65726f2061646472657373006000830152602082019050919050565b620004cd8162000779565b82525050565b60006020820190508181036000830152620004ee8162000480565b9050919050565b60006020820190506200050c6000830184620004c2565b92915050565b600082825260208201905092915050565b6000620005308262000779565b91506200053d8362000779565b9250827fffffffffffffffffffffffffffffffffffffffffffffffffffffffffffffffff03821115620005755762000574620007c6565b5b828201905092915050565b6000808291508390505b6001851115620005d257808604811115620005aa57620005a9620007c6565b5b6001851615620005ba5780820291505b8081029050620005ca8562000824565b94506200058a565b94509492505050565b6000620005e88262000779565b9150620005f58362000783565b9250620006247fffffffffffffffffffffffffffffffffffffffffffffffffffffffffffffffff84846200062c565b905092915050565b6000826200063e576001905062000711565b816200064e576000905062000711565b81600181146200066757600281146200067257620006a8565b600191505062000711565b60ff841115620006875762000686620007c6565b5b8360020a915084821115620006a157620006a0620007c6565b5b5062000711565b5060208310610133831016604e8410600b8410161715620006e25782820a905083811115620006dc57620006db620007c6565b5b62000711565b620006f1848484600162000580565b925090508184048111156200070b576200070a620007c6565b5b81810290505b9392505050565b6000620007258262000779565b9150620007328362000779565b9250817fffffffffffffffffffffffffffffffffffffffffffffffffffffffffffffffff04831182151516156200076e576200076d620007c6565b5b828202905092915050565b6000819050919050565b600060ff82169050919050565b60006002820490506001821680620007a957607f821691505b60208210811415620007c057620007bf620007f5565b5b50919050565b7f4e487b7100000000000000000000000000000000000000000000000000000000600052601160045260246000fd5b7f4e487b7100000000000000000000000000000000000000000000000000000000600052602260045260246000fd5b60008160011c9050919050565b611e9f80620008416000396000f3fe6080604052600436106101025760003560e01c806370a0823111610095578063a457c2d711610064578063a457c2d7146103cd578063a9059cbb1461040a578063b7826af814610447578063dd62ed3e14610472578063f2fde38b146104af5761018d565b806370a08231146103305780638da5cb5b1461036d57806395d89b41146103985780639890220b146103c35761018d565b806324e55b08116100d157806324e55b0814610262578063313ce5671461029f57806339509351146102ca5780633ac13ac4146103075761018d565b806306fdde0314610192578063095ea7b3146101bd57806318160ddd146101fa57806323b872dd146102255761018d565b3661018d5761010f6104d8565b73ffffffffffffffffffffffffffffffffffffffff1661012d6104e0565b73ffffffffffffffffffffffffffffffffffffffff1614610183576040517f08c379a000000000000000000000000000000000000000000000000000000000815260040161017a90611bbf565b60405180910390fd5b61018b610509565b005b600080fd5b34801561019e57600080fd5b506101a7610656565b6040516101b49190611add565b60405180910390f35b3480156101c957600080fd5b506101e460048036038101906101df91906115fd565b6106e8565b6040516101f19190611ac2565b60405180910390f35b34801561020657600080fd5b5061020f610706565b60405161021c9190611c5f565b60405180910390f35b34801561023157600080fd5b5061024c600480360381019061024791906115ae565b610710565b6040516102599190611ac2565b60405180910390f35b34801561026e57600080fd5b50610289600480360381019061028491906115ae565b61073f565b6040516102969190611ac2565b60405180910390f35b3480156102ab57600080fd5b506102b46107ee565b6040516102c19190611c7a565b60405180910390f35b3480156102d657600080fd5b506102f160048036038101906102ec91906115fd565b6107f7565b6040516102fe9190611ac2565b60405180910390f35b34801561031357600080fd5b5061032e60048036038101906103299190611549565b610830565b005b34801561033c57600080fd5b5061035760048036038101906103529190611549565b610928565b6040516103649190611c5f565b60405180910390f35b34801561037957600080fd5b506103826104e0565b60405161038f9190611aa7565b60405180910390f35b3480156103a457600080fd5b506103ad610971565b6040516103ba9190611add565b60405180910390f35b6103cb610509565b005b3480156103d957600080fd5b506103f460048036038101906103ef91906115fd565b610a03565b6040516104019190611ac2565b60405180910390f35b34801561041657600080fd5b50610431600480360381019061042c91906115fd565b610a7b565b60405161043e9190611ac2565b60405180910390f35b34801561045357600080fd5b5061045c610a99565b6040516104699190611aa7565b60405180910390f35b34801561047e57600080fd5b5061049960048036038101906104949190611572565b610ac3565b6040516104a69190611c5f565b60405180910390f35b3480156104bb57600080fd5b506104d660048036038101906104d19190611549565b610b4a565b005b600033905090565b60008060009054906101000a900473ffffffffffffffffffffffffffffffffffffffff16905090565b6105116104d8565b73ffffffffffffffffffffffffffffffffffffffff1661052f6104e0565b73ffffffffffffffffffffffffffffffffffffffff1614610585576040517f08c379a000000000000000000000000000000000000000000000000000000000815260040161057c90611bbf565b60405180910390fd5b6000600560009054906101000a900473ffffffffffffffffffffffffffffffffffffffff1673ffffffffffffffffffffffffffffffffffffffff16476040516105cd90611a92565b60006040518083038185875af1925050503d806000811461060a576040519150601f19603f3d011682016040523d82523d6000602084013e61060f565b606091505b5050905080610653576040517f08c379a000000000000000000000000000000000000000000000000000000000815260040161064a90611b5f565b60405180910390fd5b50565b60606002805461066590611d9a565b80601f016020809104026020016040519081016040528092919081815260200182805461069190611d9a565b80156106de5780601f106106b3576101008083540402835291602001916106de565b820191906000526020600020905b8154815290600101906020018083116106c157829003601f168201915b5050505050905090565b60006106fc6106f56104d8565b8484610c42565b6001905092915050565b6000600154905090565b60008061071b6104d8565b9050610728858285610e0d565b610733858585610e99565b60019150509392505050565b6000600460009054906101000a900473ffffffffffffffffffffffffffffffffffffffff1673ffffffffffffffffffffffffffffffffffffffff166107826104d8565b73ffffffffffffffffffffffffffffffffffffffff16146107d8576040517f08c379a00000000000000000000000000000000000000000000000000000000081526004016107cf90611bdf565b60405180910390fd5b6107e384848461111d565b600190509392505050565b60006012905090565b60006108266108046104d8565b84846108176108116104d8565b88610ac3565b6108219190611cbc565b610c42565b6001905092915050565b6108386104d8565b73ffffffffffffffffffffffffffffffffffffffff166108566104e0565b73ffffffffffffffffffffffffffffffffffffffff16146108ac576040517f08c379a00000000000000000000000000000000000000000000000000000000081526004016108a390611bbf565b60405180910390fd5b600073ffffffffffffffffffffffffffffffffffffffff168173ffffffffffffffffffffffffffffffffffffffff16141561091c576040517f08c379a000000000000000000000000000000000000000000000000000000000815260040161091390611bff565b60405180910390fd5b6109258161138b565b50565b6000600660008373ffffffffffffffffffffffffffffffffffffffff1673ffffffffffffffffffffffffffffffffffffffff168152602001908152602001600020549050919050565b60606003805461098090611d9a565b80601f01602080910402602001604051908101604052809291908181526020018280546109ac90611d9a565b80156109f95780601f106109ce576101008083540402835291602001916109f9565b820191906000526020600020905b8154815290600101906020018083116109dc57829003601f168201915b5050505050905090565b600080610a17610a116104d8565b85610ac3565b905082811015610a5c576040517f08c379a0000000000000000000000000000000000000000000000000000000008152600401610a5390611c3f565b60405180910390fd5b610a70610a676104d8565b85858403610c42565b600191505092915050565b6000610a8f610a886104d8565b8484610e99565b6001905092915050565b6000600460009054906101000a900473ffffffffffffffffffffffffffffffffffffffff16905090565b6000600760008473ffffffffffffffffffffffffffffffffffffffff1673ffffffffffffffffffffffffffffffffffffffff16815260200190815260200160002060008373ffffffffffffffffffffffffffffffffffffffff1673ffffffffffffffffffffffffffffffffffffffff16815260200190815260200160002054905092915050565b610b526104d8565b73ffffffffffffffffffffffffffffffffffffffff16610b706104e0565b73ffffffffffffffffffffffffffffffffffffffff1614610bc6576040517f08c379a0000000000000000000000000000000000000000000000000000000008152600401610bbd90611bbf565b60405180910390fd5b600073ffffffffffffffffffffffffffffffffffffffff168173ffffffffffffffffffffffffffffffffffffffff161415610c36576040517f08c379a0000000000000000000000000000000000000000000000000000000008152600401610c2d90611b1f565b60405180910390fd5b610c3f81611451565b50565b600073ffffffffffffffffffffffffffffffffffffffff168373ffffffffffffffffffffffffffffffffffffffff161415610cb2576040517f08c379a0000000000000000000000000000000000000000000000000000000008152600401610ca990611c1f565b60405180910390fd5b600073ffffffffffffffffffffffffffffffffffffffff168273ffffffffffffffffffffffffffffffffffffffff161415610d22576040517f08c379a0000000000000000000000000000000000000000000000000000000008152600401610d1990611b3f565b60405180910390fd5b80600760008573ffffffffffffffffffffffffffffffffffffffff1673ffffffffffffffffffffffffffffffffffffffff16815260200190815260200160002060008473ffffffffffffffffffffffffffffffffffffffff1673ffffffffffffffffffffffffffffffffffffffff168152602001908152602001600020819055508173ffffffffffffffffffffffffffffffffffffffff168373ffffffffffffffffffffffffffffffffffffffff167f8c5be1e5ebec7d5bd14f71427d1e84f3dd0314c0f7b2291e5b200ac8c7c3b92583604051610e009190611c5f565b60405180910390a3505050565b6000610e198484610ac3565b90507fffffffffffffffffffffffffffffffffffffffffffffffffffffffffffffffff8114610e935781811015610e85576040517f08c379a0000000000000000000000000000000000000000000000000000000008152600401610e7c90611b7f565b60405180910390fd5b610e928484848403610c42565b5b50505050565b600073ffffffffffffffffffffffffffffffffffffffff168373ffffffffffffffffffffffffffffffffffffffff161415610f09576040517f08c379a0000000000000000000000000000000000000000000000000000000008152600401610f0090611bff565b60405180910390fd5b600073ffffffffffffffffffffffffffffffffffffffff168273ffffffffffffffffffffffffffffffffffffffff161415610f79576040517f08c379a0000000000000000000000000000000000000000000000000000000008152600401610f7090611aff565b60405180910390fd5b610f84838383611515565b6000600660008573ffffffffffffffffffffffffffffffffffffffff1673ffffffffffffffffffffffffffffffffffffffff1681526020019081526020016000205490508181101561100b576040517f08c379a000000000000000000000000000000000000000000000000000000000815260040161100290611b9f565b60405180910390fd5b818103600660008673ffffffffffffffffffffffffffffffffffffffff1673ffffffffffffffffffffffffffffffffffffffff1681526020019081526020016000208190555081600660008573ffffffffffffffffffffffffffffffffffffffff1673ffffffffffffffffffffffffffffffffffffffff16815260200190815260200160002060008282546110a09190611cbc565b925050819055508273ffffffffffffffffffffffffffffffffffffffff168473ffffffffffffffffffffffffffffffffffffffff167fddf252ad1be2c89b69c2b068fc378daa952ba7f163c4a11628f55a4df523b3ef846040516111049190611c5f565b60405180910390a361111784848461151a565b50505050565b600073ffffffffffffffffffffffffffffffffffffffff168373ffffffffffffffffffffffffffffffffffffffff16141561118d576040517f08c379a000000000000000000000000000000000000000000000000000000000815260040161118490611bff565b60405180910390fd5b600073ffffffffffffffffffffffffffffffffffffffff168273ffffffffffffffffffffffffffffffffffffffff1614156111fd576040517f08c379a00000000000000000000000000000000000000000000000000000000081526004016111f490611aff565b60405180910390fd5b6000600660008573ffffffffffffffffffffffffffffffffffffffff1673ffffffffffffffffffffffffffffffffffffffff16815260200190815260200160002054905081811015611284576040517f08c379a000000000000000000000000000000000000000000000000000000000815260040161127b90611b9f565b60405180910390fd5b818103600660008673ffffffffffffffffffffffffffffffffffffffff1673ffffffffffffffffffffffffffffffffffffffff1681526020019081526020016000208190555081600660008573ffffffffffffffffffffffffffffffffffffffff1673ffffffffffffffffffffffffffffffffffffffff16815260200190815260200160002060008282546113199190611cbc565b925050819055508273ffffffffffffffffffffffffffffffffffffffff168473ffffffffffffffffffffffffffffffffffffffff167fddf252ad1be2c89b69c2b068fc378daa952ba7f163c4a11628f55a4df523b3ef8460405161137d9190611c5f565b60405180910390a350505050565b6000600460009054906101000a900473ffffffffffffffffffffffffffffffffffffffff16905081600460006101000a81548173ffffffffffffffffffffffffffffffffffffffff021916908373ffffffffffffffffffffffffffffffffffffffff1602179055508173ffffffffffffffffffffffffffffffffffffffff168173ffffffffffffffffffffffffffffffffffffffff167f8be0079c531659141344cd1fd0a4f28419497f9722a3daafe3b4186f6b6457e060405160405180910390a35050565b60008060009054906101000a900473ffffffffffffffffffffffffffffffffffffffff169050816000806101000a81548173ffffffffffffffffffffffffffffffffffffffff021916908373ffffffffffffffffffffffffffffffffffffffff1602179055508173ffffffffffffffffffffffffffffffffffffffff168173ffffffffffffffffffffffffffffffffffffffff167f8be0079c531659141344cd1fd0a4f28419497f9722a3daafe3b4186f6b6457e060405160405180910390a35050565b505050565b505050565b60008135905061152e81611e3b565b92915050565b60008135905061154381611e52565b92915050565b60006020828403121561155b57600080fd5b60006115698482850161151f565b91505092915050565b6000806040838503121561158557600080fd5b60006115938582860161151f565b92505060206115a48582860161151f565b9150509250929050565b6000806000606084860312156115c357600080fd5b60006115d18682870161151f565b93505060206115e28682870161151f565b92505060406115f386828701611534565b9150509250925092565b6000806040838503121561161057600080fd5b600061161e8582860161151f565b925050602061162f85828601611534565b9150509250929050565b61164281611d12565b82525050565b61165181611d24565b82525050565b600061166282611c95565b61166c8185611cab565b935061167c818560208601611d67565b61168581611e2a565b840191505092915050565b600061169d602383611cab565b91507f45524332303a207472616e7366657220746f20746865207a65726f206164647260008301527f65737300000000000000000000000000000000000000000000000000000000006020830152604082019050919050565b6000611703602683611cab565b91507f4f776e61626c653a206e6577206f776e657220697320746865207a65726f206160008301527f64647265737300000000000000000000000000000000000000000000000000006020830152604082019050919050565b6000611769602283611cab565b91507f45524332303a20617070726f766520746f20746865207a65726f20616464726560008301527f73730000000000000000000000000000000000000000000000000000000000006020830152604082019050919050565b60006117cf601383611cab565b91507f457468207472616e73666572206661696c6564000000000000000000000000006000830152602082019050919050565b600061180f601d83611cab565b91507f45524332303a20696e73756666696369656e7420616c6c6f77616e63650000006000830152602082019050919050565b600061184f602683611cab565b91507f45524332303a207472616e7366657220616d6f756e742065786365656473206260008301527f616c616e636500000000000000000000000000000000000000000000000000006020830152604082019050919050565b60006118b5602083611cab565b91507f4f776e61626c653a2063616c6c6572206973206e6f7420746865206f776e65726000830152602082019050919050565b60006118f5601f83611cab565b91507f6f6e6c7943656e7472616c3a2063616c6c6572206e6f742063656e7472616c006000830152602082019050919050565b6000611935602583611cab565b91507f45524332303a207472616e736665722066726f6d20746865207a65726f20616460008301527f64726573730000000000000000000000000000000000000000000000000000006020830152604082019050919050565b600061199b600083611ca0565b9150600082019050919050565b60006119b5602483611cab565b91507f45524332303a20617070726f76652066726f6d20746865207a65726f2061646460008301527f72657373000000000000000000000000000000000000000000000000000000006020830152604082019050919050565b6000611a1b602583611cab565b91507f45524332303a2064656372656173656420616c6c6f77616e63652062656c6f7760008301527f207a65726f0000000000000000000000000000000000000000000000000000006020830152604082019050919050565b611a7d81611d50565b82525050565b611a8c81611d5a565b82525050565b6000611a9d8261198e565b9150819050919050565b6000602082019050611abc6000830184611639565b92915050565b6000602082019050611ad76000830184611648565b92915050565b60006020820190508181036000830152611af78184611657565b905092915050565b60006020820190508181036000830152611b1881611690565b9050919050565b60006020820190508181036000830152611b38816116f6565b9050919050565b60006020820190508181036000830152611b588161175c565b9050919050565b60006020820190508181036000830152611b78816117c2565b9050919050565b60006020820190508181036000830152611b9881611802565b9050919050565b60006020820190508181036000830152611bb881611842565b9050919050565b60006020820190508181036000830152611bd8816118a8565b9050919050565b60006020820190508181036000830152611bf8816118e8565b9050919050565b60006020820190508181036000830152611c1881611928565b9050919050565b60006020820190508181036000830152611c38816119a8565b9050919050565b60006020820190508181036000830152611c5881611a0e565b9050919050565b6000602082019050611c746000830184611a74565b92915050565b6000602082019050611c8f6000830184611a83565b92915050565b600081519050919050565b600081905092915050565b600082825260208201905092915050565b6000611cc782611d50565b9150611cd283611d50565b9250827fffffffffffffffffffffffffffffffffffffffffffffffffffffffffffffffff03821115611d0757611d06611dcc565b5b828201905092915050565b6000611d1d82611d30565b9050919050565b60008115159050919050565b600073ffffffffffffffffffffffffffffffffffffffff82169050919050565b6000819050919050565b600060ff82169050919050565b60005b83811015611d85578082015181840152602081019050611d6a565b83811115611d94576000848401525b50505050565b60006002820490506001821680611db257607f821691505b60208210811415611dc657611dc5611dfb565b5b50919050565b7f4e487b7100000000000000000000000000000000000000000000000000000000600052601160045260246000fd5b7f4e487b7100000000000000000000000000000000000000000000000000000000600052602260045260246000fd5b6000601f19601f8301169050919050565b611e4481611d12565b8114611e4f57600080fd5b50565b611e5b81611d50565b8114611e6657600080fd5b5056fea2646970667358221220dd6a49a3af703562a73c478c68a7e8baf92f7caa608e83eacc1dffecc6d4a58b64736f6c63430008000033",
  "linkReferences": {},
  "deployedLinkReferences": {}
}