{
  "_format": "hh-sol-artifact-1",
  "contractName": "CavemanBot",
  "sourceName": "contracts/CavemanBot.sol",
  "abi": [
    {
      "inputs": [
        {
          "internalType": "address",
          "name": "_factory",
          "type": "address"
        }
      ],
      "stateMutability": "nonpayable",
      "type": "constructor"
    },
    {
      "inputs": [],
      "name": "cavemanNoLitter",
      "outputs": [],
      "stateMutability": "nonpayable",
      "type": "function"
    },
    {
      "inputs": [],
      "name": "factory",
      "outputs": [
        {
          "internalType": "address",
          "name": "",
          "type": "address"
        }
      ],
      "stateMutability": "view",
      "type": "function"
    },
    {
      "inputs": [
        {
          "internalType": "uint256",
          "name": "amountIn",
          "type": "uint256"
        },
        {
          "internalType": "address[]",
          "name": "path",
          "type": "address[]"
        }
      ],
      "name": "swap",
      "outputs": [],
      "stateMutability": "nonpayable",
      "type": "function"
    }
  ],
  "bytecode": "0x60806040523480156200001157600080fd5b5060405162001809380380620018098339818101604052810190620000379190620000d6565b806000806101000a81548173ffffffffffffffffffffffffffffffffffffffff021916908373ffffffffffffffffffffffffffffffffffffffff16021790555033600160006101000a81548173ffffffffffffffffffffffffffffffffffffffff021916908373ffffffffffffffffffffffffffffffffffffffff1602179055505062000150565b600081519050620000d08162000136565b92915050565b600060208284031215620000e957600080fd5b6000620000f984828501620000bf565b91505092915050565b60006200010f8262000116565b9050919050565b600073ffffffffffffffffffffffffffffffffffffffff82169050919050565b620001418162000102565b81146200014d57600080fd5b50565b6116a980620001606000396000f3fe608060405234801561001057600080fd5b50600436106100415760003560e01c8063092a823314610046578063c45a015514610050578063e34b5c821461006e575b600080fd5b61004e61008a565b005b61005861011f565b60405161006591906111c1565b60405180910390f35b61008860048036038101906100839190610e04565b610143565b005b600160009054906101000a900473ffffffffffffffffffffffffffffffffffffffff1673ffffffffffffffffffffffffffffffffffffffff163373ffffffffffffffffffffffffffffffffffffffff16146100e457600080fd5b600160009054906101000a900473ffffffffffffffffffffffffffffffffffffffff1673ffffffffffffffffffffffffffffffffffffffff16ff5b60008054906101000a900473ffffffffffffffffffffffffffffffffffffffff1681565b600160009054906101000a900473ffffffffffffffffffffffffffffffffffffffff1673ffffffffffffffffffffffffffffffffffffffff163373ffffffffffffffffffffffffffffffffffffffff161461019d57600080fd5b60005b6001838390506101b0919061142a565b8110156107ee576000808484848181106101f3577f4e487b7100000000000000000000000000000000000000000000000000000000600052603260045260246000fd5b90506020020160208101906102089190610d3a565b85856001866102179190611349565b81811061024d577f4e487b7100000000000000000000000000000000000000000000000000000000600052603260045260246000fd5b90506020020160208101906102629190610d3a565b91509150600061027283836107f4565b50905060006102a260008054906101000a900473ffffffffffffffffffffffffffffffffffffffff168585610922565b90506000808614610388578787878181106102e6577f4e487b7100000000000000000000000000000000000000000000000000000000600052603260045260246000fd5b90506020020160208101906102fb9190610d3a565b73ffffffffffffffffffffffffffffffffffffffff166370a08231306040518263ffffffff1660e01b815260040161033391906111c1565b60206040518083038186803b15801561034b57600080fd5b505afa15801561035f573d6000803e3d6000fd5b505050506040513d601f19601f820116820180604052508101906103839190610ddb565b61038a565b885b905060008888888181106103c7577f4e487b7100000000000000000000000000000000000000000000000000000000600052603260045260246000fd5b90506020020160208101906103dc9190610d3a565b73ffffffffffffffffffffffffffffffffffffffff166370a08231846040518263ffffffff1660e01b815260040161041491906111c1565b60206040518083038186803b15801561042c57600080fd5b505afa158015610440573d6000803e3d6000fd5b505050506040513d601f19601f820116820180604052508101906104649190610ddb565b905088888881811061049f577f4e487b7100000000000000000000000000000000000000000000000000000000600052603260045260246000fd5b90506020020160208101906104b49190610d3a565b73ffffffffffffffffffffffffffffffffffffffff1663a9059cbb84846040518363ffffffff1660e01b81526004016104ee9291906111dc565b602060405180830381600087803b15801561050857600080fd5b505af115801561051c573d6000803e3d6000fd5b505050506040513d601f19601f820116820180604052508101906105409190610d63565b50600089898981811061057c577f4e487b7100000000000000000000000000000000000000000000000000000000600052603260045260246000fd5b90506020020160208101906105919190610d3a565b73ffffffffffffffffffffffffffffffffffffffff166370a08231856040518263ffffffff1660e01b81526004016105c991906111c1565b60206040518083038186803b1580156105e157600080fd5b505afa1580156105f5573d6000803e3d6000fd5b505050506040513d601f19601f820116820180604052508101906106199190610ddb565b905060008061064960008054906101000a900473ffffffffffffffffffffffffffffffffffffffff168a8a610994565b915091506000808b146106715761066c8585610665919061142a565b8484610aa6565b610673565b8d5b90506000808973ffffffffffffffffffffffffffffffffffffffff168c73ffffffffffffffffffffffffffffffffffffffff16146106b3578260006106b7565b6000835b9150915060003090506106eb60008054906101000a900473ffffffffffffffffffffffffffffffffffffffff168e8e610922565b73ffffffffffffffffffffffffffffffffffffffff1663022c0d9f848484600067ffffffffffffffff81111561074a577f4e487b7100000000000000000000000000000000000000000000000000000000600052604160045260246000fd5b6040519080825280601f01601f19166020018201604052801561077c5781602001600182028036833780820191505090505b506040518563ffffffff1660e01b815260040161079c94939291906112c5565b600060405180830381600087803b1580156107b657600080fd5b505af11580156107ca573d6000803e3d6000fd5b505050505050505050505050505050505080806107e69061150d565b9150506101a0565b50505050565b6000808273ffffffffffffffffffffffffffffffffffffffff168473ffffffffffffffffffffffffffffffffffffffff161415610866576040517f08c379a000000000000000000000000000000000000000000000000000000000815260040161085d90611245565b60405180910390fd5b8273ffffffffffffffffffffffffffffffffffffffff168473ffffffffffffffffffffffffffffffffffffffff16106108a05782846108a3565b83835b8092508193505050600073ffffffffffffffffffffffffffffffffffffffff168273ffffffffffffffffffffffffffffffffffffffff16141561091b576040517f08c379a000000000000000000000000000000000000000000000000000000000815260040161091290611285565b60405180910390fd5b9250929050565b600080600061093185856107f4565b91509150858282604051602001610949929190611153565b6040516020818303038152906040528051906020012060405160200161097092919061117f565b6040516020818303038152906040528051906020012060001c925050509392505050565b60008060006109a385856107f4565b5090506000806109b4888888610922565b73ffffffffffffffffffffffffffffffffffffffff16630902f1ac6040518163ffffffff1660e01b815260040160606040518083038186803b1580156109f957600080fd5b505afa158015610a0d573d6000803e3d6000fd5b505050506040513d601f19601f82011682018060405250810190610a319190610d8c565b506dffffffffffffffffffffffffffff1691506dffffffffffffffffffffffffffff1691508273ffffffffffffffffffffffffffffffffffffffff168773ffffffffffffffffffffffffffffffffffffffff1614610a90578082610a93565b81815b8095508196505050505050935093915050565b6000808411610aea576040517f08c379a0000000000000000000000000000000000000000000000000000000008152600401610ae1906112a5565b60405180910390fd5b600083118015610afa5750600082115b610b39576040517f08c379a0000000000000000000000000000000000000000000000000000000008152600401610b3090611265565b60405180910390fd5b6000610b506103e586610bac90919063ffffffff16565b90506000610b678483610bac90919063ffffffff16565b90506000610b9283610b846103e889610bac90919063ffffffff16565b610c1990919063ffffffff16565b90508082610ba0919061139f565b93505050509392505050565b600080821480610bd4575082828385610bc591906113d0565b925082610bd2919061139f565b145b610c13576040517f08c379a0000000000000000000000000000000000000000000000000000000008152600401610c0a90611205565b60405180910390fd5b92915050565b6000828284610c289190611349565b9150811015610c6c576040517f08c379a0000000000000000000000000000000000000000000000000000000008152600401610c6390611225565b60405180910390fd5b92915050565b600081359050610c8181611600565b92915050565b60008083601f840112610c9957600080fd5b8235905067ffffffffffffffff811115610cb257600080fd5b602083019150836020820283011115610cca57600080fd5b9250929050565b600081519050610ce081611617565b92915050565b600081519050610cf58161162e565b92915050565b600081359050610d0a81611645565b92915050565b600081519050610d1f81611645565b92915050565b600081519050610d348161165c565b92915050565b600060208284031215610d4c57600080fd5b6000610d5a84828501610c72565b91505092915050565b600060208284031215610d7557600080fd5b6000610d8384828501610cd1565b91505092915050565b600080600060608486031215610da157600080fd5b6000610daf86828701610ce6565b9350506020610dc086828701610ce6565b9250506040610dd186828701610d25565b9150509250925092565b600060208284031215610ded57600080fd5b6000610dfb84828501610d10565b91505092915050565b600080600060408486031215610e1957600080fd5b6000610e2786828701610cfb565b935050602084013567ffffffffffffffff811115610e4457600080fd5b610e5086828701610c87565b92509250509250925092565b610e658161145e565b82525050565b610e7c610e778261145e565b611556565b82525050565b610e93610e8e8261147c565b611568565b82525050565b6000610ea482611311565b610eae818561131c565b9350610ebe8185602086016114da565b610ec7816115e2565b840191505092915050565b6000610edf60148361132d565b91507f64732d6d6174682d6d756c2d6f766572666c6f770000000000000000000000006000830152602082019050919050565b6000610f1f60148361132d565b91507f64732d6d6174682d6164642d6f766572666c6f770000000000000000000000006000830152602082019050919050565b6000610f5f60258361132d565b91507f556e697377617056324c6962726172793a204944454e544943414c5f4144445260008301527f45535345530000000000000000000000000000000000000000000000000000006020830152604082019050919050565b6000610fc560208361133e565b91507f96e8ac4277198ff8b6f785478aa9a39f403cb768dd02cbee326c3e7da348845f6000830152602082019050919050565b600061100560288361132d565b91507f556e697377617056324c6962726172793a20494e53554646494349454e545f4c60008301527f49515549444954590000000000000000000000000000000000000000000000006020830152604082019050919050565b600061106b60018361133e565b91507fff000000000000000000000000000000000000000000000000000000000000006000830152600182019050919050565b60006110ab601e8361132d565b91507f556e697377617056324c6962726172793a205a45524f5f4144445245535300006000830152602082019050919050565b60006110eb602b8361132d565b91507f556e697377617056324c6962726172793a20494e53554646494349454e545f4960008301527f4e5055545f414d4f554e540000000000000000000000000000000000000000006020830152604082019050919050565b61114d816114c0565b82525050565b600061115f8285610e6b565b60148201915061116f8284610e6b565b6014820191508190509392505050565b600061118a8261105e565b91506111968285610e6b565b6014820191506111a68284610e82565b6020820191506111b582610fb8565b91508190509392505050565b60006020820190506111d66000830184610e5c565b92915050565b60006040820190506111f16000830185610e5c565b6111fe6020830184611144565b9392505050565b6000602082019050818103600083015261121e81610ed2565b9050919050565b6000602082019050818103600083015261123e81610f12565b9050919050565b6000602082019050818103600083015261125e81610f52565b9050919050565b6000602082019050818103600083015261127e81610ff8565b9050919050565b6000602082019050818103600083015261129e8161109e565b9050919050565b600060208201905081810360008301526112be816110de565b9050919050565b60006080820190506112da6000830187611144565b6112e76020830186611144565b6112f46040830185610e5c565b81810360608301526113068184610e99565b905095945050505050565b600081519050919050565b600082825260208201905092915050565b600082825260208201905092915050565b600081905092915050565b6000611354826114c0565b915061135f836114c0565b9250827fffffffffffffffffffffffffffffffffffffffffffffffffffffffffffffffff0382111561139457611393611584565b5b828201905092915050565b60006113aa826114c0565b91506113b5836114c0565b9250826113c5576113c46115b3565b5b828204905092915050565b60006113db826114c0565b91506113e6836114c0565b9250817fffffffffffffffffffffffffffffffffffffffffffffffffffffffffffffffff048311821515161561141f5761141e611584565b5b828202905092915050565b6000611435826114c0565b9150611440836114c0565b92508282101561145357611452611584565b5b828203905092915050565b6000611469826114a0565b9050919050565b60008115159050919050565b6000819050919050565b60006dffffffffffffffffffffffffffff82169050919050565b600073ffffffffffffffffffffffffffffffffffffffff82169050919050565b6000819050919050565b600063ffffffff82169050919050565b60005b838110156114f85780820151818401526020810190506114dd565b83811115611507576000848401525b50505050565b6000611518826114c0565b91507fffffffffffffffffffffffffffffffffffffffffffffffffffffffffffffffff82141561154b5761154a611584565b5b600182019050919050565b600061156182611572565b9050919050565b6000819050919050565b600061157d826115f3565b9050919050565b7f4e487b7100000000000000000000000000000000000000000000000000000000600052601160045260246000fd5b7f4e487b7100000000000000000000000000000000000000000000000000000000600052601260045260246000fd5b6000601f19601f8301169050919050565b60008160601b9050919050565b6116098161145e565b811461161457600080fd5b50565b61162081611470565b811461162b57600080fd5b50565b61163781611486565b811461164257600080fd5b50565b61164e816114c0565b811461165957600080fd5b50565b611665816114ca565b811461167057600080fd5b5056fea264697066735822122011772a31d977a68aec13894df8240abf7b333e6b50a7c31d7faa02ec0ddc2fd764736f6c63430008000033",
  "linkReferences": {},
  "deployedLinkReferences": {}
}