{
  "_format": "hh-sol-artifact-1",
  "contractName": "StandardToken",
  "sourceName": "contracts/StandardToken.sol",
  "abi": [
    {
      "inputs": [],
      "stateMutability": "nonpayable",
      "type": "constructor"
    },
    {
      "anonymous": false,
      "inputs": [
        {
          "indexed": true,
          "internalType": "address",
          "name": "owner",
          "type": "address"
        },
        {
          "indexed": true,
          "internalType": "address",
          "name": "spender",
          "type": "address"
        },
        {
          "indexed": false,
          "internalType": "uint256",
          "name": "value",
          "type": "uint256"
        }
      ],
      "name": "Approval",
      "type": "event"
    },
    {
      "anonymous": false,
      "inputs": [
        {
          "indexed": false,
          "internalType": "address",
          "name": "",
          "type": "address"
        }
      ],
      "name": "FallbackCalled",
      "type": "event"
    },
    {
      "anonymous": false,
      "inputs": [
        {
          "indexed": true,
          "internalType": "address",
          "name": "previousOwner",
          "type": "address"
        },
        {
          "indexed": true,
          "internalType": "address",
          "name": "newOwner",
          "type": "address"
        }
      ],
      "name": "OwnershipTransferred",
      "type": "event"
    },
    {
      "anonymous": false,
      "inputs": [
        {
          "indexed": false,
          "internalType": "address",
          "name": "account",
          "type": "address"
        }
      ],
      "name": "Paused",
      "type": "event"
    },
    {
      "anonymous": false,
      "inputs": [
        {
          "indexed": true,
          "internalType": "address",
          "name": "from",
          "type": "address"
        },
        {
          "indexed": true,
          "internalType": "address",
          "name": "to",
          "type": "address"
        },
        {
          "indexed": false,
          "internalType": "uint256",
          "name": "value",
          "type": "uint256"
        }
      ],
      "name": "Transfer",
      "type": "event"
    },
    {
      "anonymous": false,
      "inputs": [
        {
          "indexed": false,
          "internalType": "address",
          "name": "account",
          "type": "address"
        }
      ],
      "name": "Unpaused",
      "type": "event"
    },
    {
      "stateMutability": "nonpayable",
      "type": "fallback"
    },
    {
      "inputs": [
        {
          "internalType": "address",
          "name": "owner",
          "type": "address"
        },
        {
          "internalType": "address",
          "name": "spender",
          "type": "address"
        }
      ],
      "name": "allowance",
      "outputs": [
        {
          "internalType": "uint256",
          "name": "",
          "type": "uint256"
        }
      ],
      "stateMutability": "view",
      "type": "function"
    },
    {
      "inputs": [
        {
          "internalType": "address",
          "name": "spender",
          "type": "address"
        },
        {
          "internalType": "uint256",
          "name": "amount",
          "type": "uint256"
        }
      ],
      "name": "approve",
      "outputs": [
        {
          "internalType": "bool",
          "name": "",
          "type": "bool"
        }
      ],
      "stateMutability": "nonpayable",
      "type": "function"
    },
    {
      "inputs": [
        {
          "internalType": "address",
          "name": "account",
          "type": "address"
        }
      ],
      "name": "balanceOf",
      "outputs": [
        {
          "internalType": "uint256",
          "name": "",
          "type": "uint256"
        }
      ],
      "stateMutability": "view",
      "type": "function"
    },
    {
      "inputs": [],
      "name": "decimals",
      "outputs": [
        {
          "internalType": "uint8",
          "name": "",
          "type": "uint8"
        }
      ],
      "stateMutability": "view",
      "type": "function"
    },
    {
      "inputs": [
        {
          "internalType": "address",
          "name": "spender",
          "type": "address"
        },
        {
          "internalType": "uint256",
          "name": "subtractedValue",
          "type": "uint256"
        }
      ],
      "name": "decreaseAllowance",
      "outputs": [
        {
          "internalType": "bool",
          "name": "",
          "type": "bool"
        }
      ],
      "stateMutability": "nonpayable",
      "type": "function"
    },
    {
      "inputs": [
        {
          "internalType": "address",
          "name": "spender",
          "type": "address"
        },
        {
          "internalType": "uint256",
          "name": "addedValue",
          "type": "uint256"
        }
      ],
      "name": "increaseAllowance",
      "outputs": [
        {
          "internalType": "bool",
          "name": "",
          "type": "bool"
        }
      ],
      "stateMutability": "nonpayable",
      "type": "function"
    },
    {
      "inputs": [
        {
          "internalType": "address",
          "name": "to",
          "type": "address"
        },
        {
          "internalType": "uint256",
          "name": "amount",
          "type": "uint256"
        }
      ],
      "name": "mint",
      "outputs": [],
      "stateMutability": "nonpayable",
      "type": "function"
    },
    {
      "inputs": [],
      "name": "name",
      "outputs": [
        {
          "internalType": "string",
          "name": "",
          "type": "string"
        }
      ],
      "stateMutability": "view",
      "type": "function"
    },
    {
      "inputs": [],
      "name": "owner",
      "outputs": [
        {
          "internalType": "address",
          "name": "",
          "type": "address"
        }
      ],
      "stateMutability": "view",
      "type": "function"
    },
    {
      "inputs": [],
      "name": "pause",
      "outputs": [],
      "stateMutability": "nonpayable",
      "type": "function"
    },
    {
      "inputs": [],
      "name": "paused",
      "outputs": [
        {
          "internalType": "bool",
          "name": "",
          "type": "bool"
        }
      ],
      "stateMutability": "view",
      "type": "function"
    },
    {
      "inputs": [],
      "name": "renounceOwnership",
      "outputs": [],
      "stateMutability": "nonpayable",
      "type": "function"
    },
    {
      "inputs": [],
      "name": "symbol",
      "outputs": [
        {
          "internalType": "string",
          "name": "",
          "type": "string"
        }
      ],
      "stateMutability": "view",
      "type": "function"
    },
    {
      "inputs": [],
      "name": "totalSupply",
      "outputs": [
        {
          "internalType": "uint256",
          "name": "",
          "type": "uint256"
        }
      ],
      "stateMutability": "view",
      "type": "function"
    },
    {
      "inputs": [
        {
          "internalType": "address",
          "name": "to",
          "type": "address"
        },
        {
          "internalType": "uint256",
          "name": "amount",
          "type": "uint256"
        }
      ],
      "name": "transfer",
      "outputs": [
        {
          "internalType": "bool",
          "name": "",
          "type": "bool"
        }
      ],
      "stateMutability": "nonpayable",
      "type": "function"
    },
    {
      "inputs": [
        {
          "internalType": "address",
          "name": "from",
          "type": "address"
        },
        {
          "internalType": "address",
          "name": "to",
          "type": "address"
        },
        {
          "internalType": "uint256",
          "name": "amount",
          "type": "uint256"
        }
      ],
      "name": "transferFrom",
      "outputs": [
        {
          "internalType": "bool",
          "name": "",
          "type": "bool"
        }
      ],
      "stateMutability": "nonpayable",
      "type": "function"
    },
    {
      "inputs": [
        {
          "internalType": "address",
          "name": "newOwner",
          "type": "address"
        }
      ],
      "name": "transferOwnership",
      "outputs": [],
      "stateMutability": "nonpayable",
      "type": "function"
    },
    {
      "inputs": [],
      "name": "unpause",
      "outputs": [],
      "stateMutability": "nonpayable",
      "type": "function"
    }
  ],
  "bytecode": "0x60806040523480156200001157600080fd5b506040518060400160405280600d81526020017f5374616e64617264546f6b656e000000000000000000000000000000000000008152506040518060400160405280600381526020017f535444000000000000000000000000000000000000000000000000000000000081525081600390805190602001906200009692919062000413565b508060049080519060200190620000af92919062000413565b5050506000600560006101000a81548160ff021916908315150217905550620000ed620000e16200013260201b60201c565b6200013a60201b60201c565b6200012c33620001026200020060201b60201c565b600a62000110919062000682565b620f4240620001209190620007bf565b6200020960201b60201c565b620008d8565b600033905090565b6000600560019054906101000a900473ffffffffffffffffffffffffffffffffffffffff16905081600560016101000a81548173ffffffffffffffffffffffffffffffffffffffff021916908373ffffffffffffffffffffffffffffffffffffffff1602179055508173ffffffffffffffffffffffffffffffffffffffff168173ffffffffffffffffffffffffffffffffffffffff167f8be0079c531659141344cd1fd0a4f28419497f9722a3daafe3b4186f6b6457e060405160405180910390a35050565b60006012905090565b600073ffffffffffffffffffffffffffffffffffffffff168273ffffffffffffffffffffffffffffffffffffffff1614156200027c576040517f08c379a000000000000000000000000000000000000000000000000000000000815260040162000273906200057a565b60405180910390fd5b62000290600083836200038260201b60201c565b8060026000828254620002a49190620005ca565b92505081905550806000808473ffffffffffffffffffffffffffffffffffffffff1673ffffffffffffffffffffffffffffffffffffffff1681526020019081526020016000206000828254620002fb9190620005ca565b925050819055508173ffffffffffffffffffffffffffffffffffffffff16600073ffffffffffffffffffffffffffffffffffffffff167fddf252ad1be2c89b69c2b068fc378daa952ba7f163c4a11628f55a4df523b3ef836040516200036291906200059c565b60405180910390a36200037e60008383620003f260201b60201c565b5050565b62000392620003f760201b60201c565b15620003d5576040517f08c379a0000000000000000000000000000000000000000000000000000000008152600401620003cc9062000558565b60405180910390fd5b620003ed8383836200040e60201b62000a241760201c565b505050565b505050565b6000600560009054906101000a900460ff16905090565b505050565b828054620004219062000837565b90600052602060002090601f01602090048101928262000445576000855562000491565b82601f106200046057805160ff191683800117855562000491565b8280016001018555821562000491579182015b828111156200049057825182559160200191906001019062000473565b5b509050620004a09190620004a4565b5090565b5b80821115620004bf576000816000905550600101620004a5565b5090565b6000620004d2601083620005b9565b91507f5061757361626c653a20706175736564000000000000000000000000000000006000830152602082019050919050565b600062000514601f83620005b9565b91507f45524332303a206d696e7420746f20746865207a65726f2061646472657373006000830152602082019050919050565b620005528162000820565b82525050565b600060208201905081810360008301526200057381620004c3565b9050919050565b60006020820190508181036000830152620005958162000505565b9050919050565b6000602082019050620005b3600083018462000547565b92915050565b600082825260208201905092915050565b6000620005d78262000820565b9150620005e48362000820565b9250827fffffffffffffffffffffffffffffffffffffffffffffffffffffffffffffffff038211156200061c576200061b6200086d565b5b828201905092915050565b6000808291508390505b600185111562000679578086048111156200065157620006506200086d565b5b6001851615620006615780820291505b80810290506200067185620008cb565b945062000631565b94509492505050565b60006200068f8262000820565b91506200069c836200082a565b9250620006cb7fffffffffffffffffffffffffffffffffffffffffffffffffffffffffffffffff8484620006d3565b905092915050565b600082620006e55760019050620007b8565b81620006f55760009050620007b8565b81600181146200070e576002811462000719576200074f565b6001915050620007b8565b60ff8411156200072e576200072d6200086d565b5b8360020a9150848211156200074857620007476200086d565b5b50620007b8565b5060208310610133831016604e8410600b8410161715620007895782820a9050838111156200078357620007826200086d565b5b620007b8565b62000798848484600162000627565b92509050818404811115620007b257620007b16200086d565b5b81810290505b9392505050565b6000620007cc8262000820565b9150620007d98362000820565b9250817fffffffffffffffffffffffffffffffffffffffffffffffffffffffffffffffff04831182151516156200081557620008146200086d565b5b828202905092915050565b6000819050919050565b600060ff82169050919050565b600060028204905060018216806200085057607f821691505b602082108114156200086757620008666200089c565b5b50919050565b7f4e487b7100000000000000000000000000000000000000000000000000000000600052601160045260246000fd5b7f4e487b7100000000000000000000000000000000000000000000000000000000600052602260045260246000fd5b60008160011c9050919050565b611c7780620008e86000396000f3fe608060405234801561001057600080fd5b506004361061011a5760003560e01c806370a08231116100a257806395d89b411161007157806395d89b41146102e4578063a457c2d714610302578063a9059cbb14610332578063dd62ed3e14610362578063f2fde38b146103925761011b565b806370a0823114610282578063715018a6146102b25780638456cb59146102bc5780638da5cb5b146102c65761011b565b8063313ce567116100e9578063313ce567146101f0578063395093511461020e5780633f4ba83a1461023e57806340c10f19146102485780635c975abb146102645761011b565b806306fdde0314610154578063095ea7b31461017257806318160ddd146101a257806323b872dd146101c05761011b565b5b7ff028c523285f6d5172b4f6fd31f72f52dc757bc26a0c46239dec58b836ee67f63360405161014a919061186a565b60405180910390a1005b61015c6103ae565b60405161016991906118a0565b60405180910390f35b61018c600480360381019061018791906113af565b610440565b6040516101999190611885565b60405180910390f35b6101aa610463565b6040516101b79190611a42565b60405180910390f35b6101da60048036038101906101d59190611360565b61046d565b6040516101e79190611885565b60405180910390f35b6101f861049c565b6040516102059190611a5d565b60405180910390f35b610228600480360381019061022391906113af565b6104a5565b6040516102359190611885565b60405180910390f35b6102466104dc565b005b610262600480360381019061025d91906113af565b610562565b005b61026c6105ec565b6040516102799190611885565b60405180910390f35b61029c600480360381019061029791906112fb565b610603565b6040516102a99190611a42565b60405180910390f35b6102ba61064b565b005b6102c46106c9565b005b6102ce61074f565b6040516102db919061186a565b60405180910390f35b6102ec610779565b6040516102f991906118a0565b60405180910390f35b61031c600480360381019061031791906113af565b61080b565b6040516103299190611885565b60405180910390f35b61034c600480360381019061034791906113af565b610882565b6040516103599190611885565b60405180910390f35b61037c60048036038101906103779190611324565b6108a5565b6040516103899190611a42565b60405180910390f35b6103ac60048036038101906103a791906112fb565b61092c565b005b6060600380546103bd90611b72565b80601f01602080910402602001604051908101604052809291908181526020018280546103e990611b72565b80156104365780601f1061040b57610100808354040283529160200191610436565b820191906000526020600020905b81548152906001019060200180831161041957829003601f168201915b5050505050905090565b60008061044b610a29565b9050610458818585610a31565b600191505092915050565b6000600254905090565b600080610478610a29565b9050610485858285610bfc565b610490858585610c88565b60019150509392505050565b60006012905090565b6000806104b0610a29565b90506104d18185856104c285896108a5565b6104cc9190611a94565b610a31565b600191505092915050565b6104e4610a29565b73ffffffffffffffffffffffffffffffffffffffff1661050261074f565b73ffffffffffffffffffffffffffffffffffffffff1614610558576040517f08c379a000000000000000000000000000000000000000000000000000000000815260040161054f906119a2565b60405180910390fd5b610560610f09565b565b61056a610a29565b73ffffffffffffffffffffffffffffffffffffffff1661058861074f565b73ffffffffffffffffffffffffffffffffffffffff16146105de576040517f08c379a00000000000000000000000000000000000000000000000000000000081526004016105d5906119a2565b60405180910390fd5b6105e88282610fab565b5050565b6000600560009054906101000a900460ff16905090565b60008060008373ffffffffffffffffffffffffffffffffffffffff1673ffffffffffffffffffffffffffffffffffffffff168152602001908152602001600020549050919050565b610653610a29565b73ffffffffffffffffffffffffffffffffffffffff1661067161074f565b73ffffffffffffffffffffffffffffffffffffffff16146106c7576040517f08c379a00000000000000000000000000000000000000000000000000000000081526004016106be906119a2565b60405180910390fd5b565b6106d1610a29565b73ffffffffffffffffffffffffffffffffffffffff166106ef61074f565b73ffffffffffffffffffffffffffffffffffffffff1614610745576040517f08c379a000000000000000000000000000000000000000000000000000000000815260040161073c906119a2565b60405180910390fd5b61074d61110b565b565b6000600560019054906101000a900473ffffffffffffffffffffffffffffffffffffffff16905090565b60606004805461078890611b72565b80601f01602080910402602001604051908101604052809291908181526020018280546107b490611b72565b80156108015780601f106107d657610100808354040283529160200191610801565b820191906000526020600020905b8154815290600101906020018083116107e457829003601f168201915b5050505050905090565b600080610816610a29565b9050600061082482866108a5565b905083811015610869576040517f08c379a000000000000000000000000000000000000000000000000000000000815260040161086090611a02565b60405180910390fd5b6108768286868403610a31565b60019250505092915050565b60008061088d610a29565b905061089a818585610c88565b600191505092915050565b6000600160008473ffffffffffffffffffffffffffffffffffffffff1673ffffffffffffffffffffffffffffffffffffffff16815260200190815260200160002060008373ffffffffffffffffffffffffffffffffffffffff1673ffffffffffffffffffffffffffffffffffffffff16815260200190815260200160002054905092915050565b610934610a29565b73ffffffffffffffffffffffffffffffffffffffff1661095261074f565b73ffffffffffffffffffffffffffffffffffffffff16146109a8576040517f08c379a000000000000000000000000000000000000000000000000000000000815260040161099f906119a2565b60405180910390fd5b600073ffffffffffffffffffffffffffffffffffffffff168173ffffffffffffffffffffffffffffffffffffffff161415610a18576040517f08c379a0000000000000000000000000000000000000000000000000000000008152600401610a0f90611902565b60405180910390fd5b610a21816111ae565b50565b505050565b600033905090565b600073ffffffffffffffffffffffffffffffffffffffff168373ffffffffffffffffffffffffffffffffffffffff161415610aa1576040517f08c379a0000000000000000000000000000000000000000000000000000000008152600401610a98906119e2565b60405180910390fd5b600073ffffffffffffffffffffffffffffffffffffffff168273ffffffffffffffffffffffffffffffffffffffff161415610b11576040517f08c379a0000000000000000000000000000000000000000000000000000000008152600401610b0890611922565b60405180910390fd5b80600160008573ffffffffffffffffffffffffffffffffffffffff1673ffffffffffffffffffffffffffffffffffffffff16815260200190815260200160002060008473ffffffffffffffffffffffffffffffffffffffff1673ffffffffffffffffffffffffffffffffffffffff168152602001908152602001600020819055508173ffffffffffffffffffffffffffffffffffffffff168373ffffffffffffffffffffffffffffffffffffffff167f8c5be1e5ebec7d5bd14f71427d1e84f3dd0314c0f7b2291e5b200ac8c7c3b92583604051610bef9190611a42565b60405180910390a3505050565b6000610c0884846108a5565b90507fffffffffffffffffffffffffffffffffffffffffffffffffffffffffffffffff8114610c825781811015610c74576040517f08c379a0000000000000000000000000000000000000000000000000000000008152600401610c6b90611942565b60405180910390fd5b610c818484848403610a31565b5b50505050565b600073ffffffffffffffffffffffffffffffffffffffff168373ffffffffffffffffffffffffffffffffffffffff161415610cf8576040517f08c379a0000000000000000000000000000000000000000000000000000000008152600401610cef906119c2565b60405180910390fd5b600073ffffffffffffffffffffffffffffffffffffffff168273ffffffffffffffffffffffffffffffffffffffff161415610d68576040517f08c379a0000000000000000000000000000000000000000000000000000000008152600401610d5f906118c2565b60405180910390fd5b610d73838383611274565b60008060008573ffffffffffffffffffffffffffffffffffffffff1673ffffffffffffffffffffffffffffffffffffffff16815260200190815260200160002054905081811015610df9576040517f08c379a0000000000000000000000000000000000000000000000000000000008152600401610df090611962565b60405180910390fd5b8181036000808673ffffffffffffffffffffffffffffffffffffffff1673ffffffffffffffffffffffffffffffffffffffff16815260200190815260200160002081905550816000808573ffffffffffffffffffffffffffffffffffffffff1673ffffffffffffffffffffffffffffffffffffffff1681526020019081526020016000206000828254610e8c9190611a94565b925050819055508273ffffffffffffffffffffffffffffffffffffffff168473ffffffffffffffffffffffffffffffffffffffff167fddf252ad1be2c89b69c2b068fc378daa952ba7f163c4a11628f55a4df523b3ef84604051610ef09190611a42565b60405180910390a3610f038484846112cc565b50505050565b610f116105ec565b610f50576040517f08c379a0000000000000000000000000000000000000000000000000000000008152600401610f47906118e2565b60405180910390fd5b6000600560006101000a81548160ff0219169083151502179055507f5db9ee0a495bf2e6ff9c91a7834c1ba4fdd244a5e8aa4e537bd38aeae4b073aa610f94610a29565b604051610fa1919061186a565b60405180910390a1565b600073ffffffffffffffffffffffffffffffffffffffff168273ffffffffffffffffffffffffffffffffffffffff16141561101b576040517f08c379a000000000000000000000000000000000000000000000000000000000815260040161101290611a22565b60405180910390fd5b61102760008383611274565b80600260008282546110399190611a94565b92505081905550806000808473ffffffffffffffffffffffffffffffffffffffff1673ffffffffffffffffffffffffffffffffffffffff168152602001908152602001600020600082825461108e9190611a94565b925050819055508173ffffffffffffffffffffffffffffffffffffffff16600073ffffffffffffffffffffffffffffffffffffffff167fddf252ad1be2c89b69c2b068fc378daa952ba7f163c4a11628f55a4df523b3ef836040516110f39190611a42565b60405180910390a3611107600083836112cc565b5050565b6111136105ec565b15611153576040517f08c379a000000000000000000000000000000000000000000000000000000000815260040161114a90611982565b60405180910390fd5b6001600560006101000a81548160ff0219169083151502179055507f62e78cea01bee320cd4e420270b5ea74000d11b0c9f74754ebdbfc544b05a258611197610a29565b6040516111a4919061186a565b60405180910390a1565b6000600560019054906101000a900473ffffffffffffffffffffffffffffffffffffffff16905081600560016101000a81548173ffffffffffffffffffffffffffffffffffffffff021916908373ffffffffffffffffffffffffffffffffffffffff1602179055508173ffffffffffffffffffffffffffffffffffffffff168173ffffffffffffffffffffffffffffffffffffffff167f8be0079c531659141344cd1fd0a4f28419497f9722a3daafe3b4186f6b6457e060405160405180910390a35050565b61127c6105ec565b156112bc576040517f08c379a00000000000000000000000000000000000000000000000000000000081526004016112b390611982565b60405180910390fd5b6112c7838383610a24565b505050565b505050565b6000813590506112e081611c13565b92915050565b6000813590506112f581611c2a565b92915050565b60006020828403121561130d57600080fd5b600061131b848285016112d1565b91505092915050565b6000806040838503121561133757600080fd5b6000611345858286016112d1565b9250506020611356858286016112d1565b9150509250929050565b60008060006060848603121561137557600080fd5b6000611383868287016112d1565b9350506020611394868287016112d1565b92505060406113a5868287016112e6565b9150509250925092565b600080604083850312156113c257600080fd5b60006113d0858286016112d1565b92505060206113e1858286016112e6565b9150509250929050565b6113f481611aea565b82525050565b61140381611afc565b82525050565b600061141482611a78565b61141e8185611a83565b935061142e818560208601611b3f565b61143781611c02565b840191505092915050565b600061144f602383611a83565b91507f45524332303a207472616e7366657220746f20746865207a65726f206164647260008301527f65737300000000000000000000000000000000000000000000000000000000006020830152604082019050919050565b60006114b5601483611a83565b91507f5061757361626c653a206e6f74207061757365640000000000000000000000006000830152602082019050919050565b60006114f5602683611a83565b91507f4f776e61626c653a206e6577206f776e657220697320746865207a65726f206160008301527f64647265737300000000000000000000000000000000000000000000000000006020830152604082019050919050565b600061155b602283611a83565b91507f45524332303a20617070726f766520746f20746865207a65726f20616464726560008301527f73730000000000000000000000000000000000000000000000000000000000006020830152604082019050919050565b60006115c1601d83611a83565b91507f45524332303a20696e73756666696369656e7420616c6c6f77616e63650000006000830152602082019050919050565b6000611601602683611a83565b91507f45524332303a207472616e7366657220616d6f756e742065786365656473206260008301527f616c616e636500000000000000000000000000000000000000000000000000006020830152604082019050919050565b6000611667601083611a83565b91507f5061757361626c653a20706175736564000000000000000000000000000000006000830152602082019050919050565b60006116a7602083611a83565b91507f4f776e61626c653a2063616c6c6572206973206e6f7420746865206f776e65726000830152602082019050919050565b60006116e7602583611a83565b91507f45524332303a207472616e736665722066726f6d20746865207a65726f20616460008301527f64726573730000000000000000000000000000000000000000000000000000006020830152604082019050919050565b600061174d602483611a83565b91507f45524332303a20617070726f76652066726f6d20746865207a65726f2061646460008301527f72657373000000000000000000000000000000000000000000000000000000006020830152604082019050919050565b60006117b3602583611a83565b91507f45524332303a2064656372656173656420616c6c6f77616e63652062656c6f7760008301527f207a65726f0000000000000000000000000000000000000000000000000000006020830152604082019050919050565b6000611819601f83611a83565b91507f45524332303a206d696e7420746f20746865207a65726f2061646472657373006000830152602082019050919050565b61185581611b28565b82525050565b61186481611b32565b82525050565b600060208201905061187f60008301846113eb565b92915050565b600060208201905061189a60008301846113fa565b92915050565b600060208201905081810360008301526118ba8184611409565b905092915050565b600060208201905081810360008301526118db81611442565b9050919050565b600060208201905081810360008301526118fb816114a8565b9050919050565b6000602082019050818103600083015261191b816114e8565b9050919050565b6000602082019050818103600083015261193b8161154e565b9050919050565b6000602082019050818103600083015261195b816115b4565b9050919050565b6000602082019050818103600083015261197b816115f4565b9050919050565b6000602082019050818103600083015261199b8161165a565b9050919050565b600060208201905081810360008301526119bb8161169a565b9050919050565b600060208201905081810360008301526119db816116da565b9050919050565b600060208201905081810360008301526119fb81611740565b9050919050565b60006020820190508181036000830152611a1b816117a6565b9050919050565b60006020820190508181036000830152611a3b8161180c565b9050919050565b6000602082019050611a57600083018461184c565b92915050565b6000602082019050611a72600083018461185b565b92915050565b600081519050919050565b600082825260208201905092915050565b6000611a9f82611b28565b9150611aaa83611b28565b9250827fffffffffffffffffffffffffffffffffffffffffffffffffffffffffffffffff03821115611adf57611ade611ba4565b5b828201905092915050565b6000611af582611b08565b9050919050565b60008115159050919050565b600073ffffffffffffffffffffffffffffffffffffffff82169050919050565b6000819050919050565b600060ff82169050919050565b60005b83811015611b5d578082015181840152602081019050611b42565b83811115611b6c576000848401525b50505050565b60006002820490506001821680611b8a57607f821691505b60208210811415611b9e57611b9d611bd3565b5b50919050565b7f4e487b7100000000000000000000000000000000000000000000000000000000600052601160045260246000fd5b7f4e487b7100000000000000000000000000000000000000000000000000000000600052602260045260246000fd5b6000601f19601f8301169050919050565b611c1c81611aea565b8114611c2757600080fd5b50565b611c3381611b28565b8114611c3e57600080fd5b5056fea26469706673582212202faf13efed53cfab445bfd2163852e829e448fb601af80a61832ae0c2583a7c664736f6c63430008000033",
  "linkReferences": {},
  "deployedLinkReferences": {}
}